S0150000536E616B6541444465426F73732E7372656358
S113000071C000008EC000008CC000008AC00000D7
S113001088C0000086C0000084C0000082C00000C8
S113002080C000007EC000007CC000007AC00000D8
S113003078C0000076C0000074C0000072C00000E8
S113004070C000006EC000006CC000006AC00000F8
S113005068C0000066C0000064C0000062C0000008
S113006060C000005EC000005CC000005AC0000018
S113007058C0000056C0000054C0000052C0000028
S113008050C000004EC000004CC000004AC0000038
S113009048C0000046C0000044C0000042C0000048
S11300A040C000003EC000003CC000003AC0000058
S11300B038C0000036C0000034C0000032C0000068
S11300C030C000002EC000002CC000002AC0000078
S11300D028C0000026C0000024C0000022C0000088
S11300E020C0000011241FBECFEFD1E2DEBFCDBF80
S11300F000E00CBF12E0A0E0B2E0E0EFFEE000E0C0
S11301000BBF02C007900D92A431B107D9F727E0C5
S1130110A4E1B2E001C01D92A73FB207E1F7DED02F
S1130120E5C66ECFCF93DF93CDB7DEB781E290E023
S113013021E230E0F90120812F7AFC01208387E25B
S113014090E027E230E0F90120812F75FC01208343
S11301508AE290E02AE230E0F90120812F60FC017C
S113016020838BE290E02BE230E0F90120812F60C4
S1130170FC01208384E290E02FEFFC012083000047
S1130180DF91CF910895CF93DF93CDB7DEB760971A
S11301900FB6F894DEBF0FBECDBF8BE290E02BE22A
S11301A030E0F90120812E7FFC01208380E090E083
S11301B0A0E8BFE38B839C83AD83BE8320E030E063
S11301C04AE755E46B817C818D819E8104D6DC01F4
S11301D0CB018F839887A987BA8720E030E040E875
S11301E05FE36F81788589859A8574D588232CF49B
S11301F081E090E09C878B873BC020E03FEF4FE796
S113020057E46F81788589859A85E1D518163CF580
S113021020E030E040E251E46B817C818D819E815D
S1130220DAD5DC01CB01BC01CD0158D5DC01CB0111
S11302309C878B870FC080E991E09E878D878D8591
S11302409E850197F1F79E878D878B859C85019705
S11302509C878B878B859C85892B69F713C06F815D
S1130260788589859A853AD5DC01CB019C878B8773
S11302708B859C85988B8F878F8598890197F1F75B
S1130280988B8F871A8219821AC080E290E0FC0151
S11302908081882F90E080719927892B59F4898176
S11302A09A81880F991F880F991F80509E4FFC01D7
S11302B080810BC089819A8101969A83898389817F
S11302C09A81049714F38091140260960FB6F894FF
S11302D0DEBF0FBECDBFDF91CF910895CF93DF93E3
S11302E0CDB7DEB7EC970FB6F894DEBF0FBECDBF27
S11302F074D218DF1A8219820BC089819A818150C5
S11303009A4FFC01108289819A8101969A8389838C
S113031089819A81883F914084F31E8A1D8A188EB0
S11303201F8A1A8E198E1C8E1B8E1E8E1D8E8AE0BD
S1130330FE017596A7E1B2E001900D928A95E1F76E
S113034018A21F8E1AA219A287E192E098A78FA380
S11303508AE0FE017F96A1E2B2E001900D928A95B7
S1130360E1F71AA619A61CA61BA61EA61DA618AA66
S11303701FA681E292E09AAB89AB8AE0FE01B996AE
S1130380ABE2B2E001900D928A95E1F71CAA1BAA98
S11303901EAA1DAA8BE292E09CAF8BAF8AE0FE01FD
S11303A0F396A5E3B2E001900D928A95E1F711D39B
S11303B01C821B822FC18B819C81880F991F9C01F9
S11303C0220F331F220F331F820F931F815E9D4F15
S11303D0FC0180819181892B09F091C08B819C81E2
S11303E0880F991F9C01220F331F220F331F820F86
S11303F0931F895E9D4FFC01208131818B819C81FB
S1130400880F991FAC01440F551F440F551F840FCB
S1130410951F855E9D4FFC01318320838B819C81D8
S1130420880F991F9C01220F331F220F331F820F45
S1130430931F875E9D4FFC01208131818B819C81BC
S1130440880F991FAC01440F551F440F551F840F8B
S1130450951F835E9D4FFC01318320838B819C819A
S1130460880F991F9C01220F331F220F331F820F05
S1130470931F895E9D4FFC0120813181809112027E
S113048090911302880F991F280F391F8B819C812B
S1130490880F991FAC01440F551F440F551F840F3B
S11304A0951F895E9D4FFC01318320838B819C8144
S11304B0880F991F9C01220F331F220F331F820FB5
S11304C0931F875E9D4FFC0120813181809115022D
S11304D090911602880F991F280F391F8B819C81D8
S11304E0880F991FAC01440F551F440F551F840FEB
S11304F0951F875E9D4FFC013183208386C08B81CD
S11305009C81880F991F9C01220F331F220F331FD8
S1130510820F931F895E9D4FFC01208131818B8165
S11305209C81880F991FAC01440F551F440F551F20
S1130530840F951F855E9D4FFC01318320838B8141
S11305409C81880F991F9C01220F331F220F331F98
S1130550820F931F875E9D4FFC01208131818B8127
S11305609C81880F991FAC01440F551F440F551FE0
S1130570840F951F835E9D4FFC01318320838B8103
S11305809C81880F991F9C01220F331F220F331F58
S1130590820F931F815E9D4FFC0180819181FC013C
S11305A0248135818B819C81880F991FAC01440F74
S11305B0551F440F551F840F951F895E9D4FFC01E5
S11305C0318320838B819C81880F991F9C01220F8A
S11305D0331F220F331F820F931F815E9D4FFC0137
S11305E080819181FC01268137818B819C81880FD8
S11305F0991FAC01440F551F440F551F840F951FBD
S1130600875E9D4FFC01318320838B819C81019601
S11306109C838B8380911002909111022B813C81E9
S1130620281739070CF4C7CEAEDD813351F48FEFB0
S11306309FEF90931602809315021092130210926A
S11306401202A1DD823351F481E090E0909316020E
S113065080931502109213021092120294DD8333D8
S113066051F4109216021092150281E090E09093DA
S113067013028093120287DD813451F41092160222
S1130680109215028FEF9FEF909313028093120242
S11306901E821D8229C08D819E81880F991F9C0115
S11306A0220F331F220F331F820F931F875E9D4F2C
S11306B0FC0180819181682F8D819E81880F991F13
S11306C09C01220F331F220F331F820F931F895E59
S11306D09D4FFC01808191814FEF55E088D28D813F
S11306E09E8101969E838D838091100290911102C8
S11306F02D813E812817390774F28FEF95E0ADD232
S113070080E090E0A8ECB2E48F839887A987BA8749
S113071020E030E04AE755E46F81788589859A8541
S11307205AD3DC01CB018B879C87AD87BE8720E041
S113073030E040E85FE36B857C858D859E85CAD279
S113074088232CF481E090E0988B8F873BC020E0D5
S11307503FEF4FE757E46B857C858D859E8537D3C6
S113076018163CF520E030E040E251E46F817885D2
S113077089859A8530D3DC01CB01BC01CD01AED291
S1130780DC01CB01988B8F870FC080E991E09A8BB5
S1130790898B89899A890197F1F79A8B898B8F853F
S11307A098890197988B8F878F859889892B69F70A
S11307B013C06B857C858D859E8590D2DC01CB0131
S11307C0988B8F878F8598899C8B8B8B8B899C8941
S11307D00197F1F79C8B8B8BEACDCF93DF93CDB749
S11307E0DEB712D181E290E02FEFFC01208382E298
S11307F090E022E230E0F90120812160FC012083B5
S113080082E290E022E230E0F90120812260FC01E2
S1130810208382E290E022E230E0F90120812B7F04
S1130820FC0120830FD081E29FD080EC9DD083E136
S11308309BD080E299D08CE097D0CBD00000DF91A0
S1130840CF910895CF93DF93CDB7DEB72E970FB630
S1130850F894DEBF0FBECDBF82E290E022E230E02A
S1130860F90120812E7FFC01208380E090E0A8EC38
S1130870B2E489839A83AB83BC8320E030E04AE707
S113088055E469817A818B819C81A5D2DC01CB01FD
S11308908D839E83AF83B88720E030E040E85FE338
S11308A06D817E818F81988515D288232CF481E017
S11308B090E09A8789873BC020E03FEF4FE757E4F9
S11308C06D817E818F81988582D218163CF520E057
S11308D030E040E251E469817A818B819C817BD252
S11308E0DC01CB01BC01CD01F9D1DC01CB019A873C
S11308F089870FC080E991E09C878B878B859C85D5
S11309000197F1F79C878B8789859A8501979A8748
S1130910898789859A85892B69F713C06D817E81C2
S11309208F819885DBD1DC01CB019A878987898502
S11309309A859E878D878D859E850197F1F79E8781
S11309408D8782E290E022E230E0F901208121608B
S1130950FC01208300002E960FB6F894DEBF0FBE74
S1130960CDBFDF91CF910895CF93DF931F92CDB781
S1130970DEB7898382E290E022E230E0F90120814F
S11309802D7FFC012083898151D082E290E022E214
S113099030E0F90120812260FC01208300000F90E7
S11309A0DF91CF910895CF93DF931F92CDB7DEB738
S11309B0898382E290E022E230E0F9012081226022
S11309C0FC012083898132D000000F90DF91CF9108
S11309D00895CF93DF931F921F92CDB7DEB71A828B
S11309E0198207C080E0DFDF89819A8101969A83AA
S11309F0898389819A81883F9140A4F300000F90F4
S1130A000F90DF91CF910895CF93DF93CDB7DEB7E9
S1130A1084E290E027E0FC0120838CE490E021E56F
S1130A20FC0120830000DF91CF910895CF93DF93E1
S1130A3000D0CDB7DEB78B8385E290E025E230E0CD
S1130A40F90120812E7FFC0120838EE490E02B812C
S1130A50FC0120831A82198205C089819A8101963A
S1130A609A8389838DE490E0FC0180818823ACF72C
S1130A708EE490E0FC0180818B8385E290E025E2A6
S1130A8030E0F90120812160FC01208300000F90F7
S1130A900F900F90DF91CF910895CF93DF93CDB74F
S1130AA0DEB728970FB6F894DEBF0FBECDBF8D8397
S1130AB06E8358874F838D81843508F08CC08E8176
S1130AC0803308F08AC01A8219821C821B828E81AC
S1130AD0883040F41A8219828E81882F90E09C839A
S1130AE08B8354C08E81883070F08E81803158F4AD
S1130AF084E590E09A8389838E81882F90E008971B
S1130B009C838B8343C08E81803170F08E818831C9
S1130B1058F488EA90E09A8389838E81882F90E044
S1130B2040979C838B8332C08E81883170F08E8194
S1130B30803258F48CEF90E09A8389838E81882FD9
S1130B4090E048979C838B8321C08E81803270F023
S1130B508E81883258F480E591E09A8389838E816E
S1130B60882F90E080979C838B8310C08E8188327D
S1130B7068F08E81803350F484EA91E09A8389830B
S1130B808E81882F90E088979C838B838D81282F7A
S1130B9030E089819A81820F931F2F813885820FDB
S1130BA0931F2D81422F50E029813A81240F351F54
S1130BB04F815885240F351FF9012081422F21E0F0
S1130BC030E00B8002C0220F331F0A94E2F7242B7B
S1130BD0FC01208303C0000001C0000028960FB66A
S1130BE0F894DEBF0FBECDBFDF91CF910895CF93B0
S1130BF0DF9300D01F92CDB7DEB789836A835C830D
S1130C004B838B819C81AC016A81898146DF898118
S1130C1021E0280F8B819C81AC016A81822F3DDF0A
S1130C208A8121E0280F8B819C81AC01622F89810C
S1130C3034DF8A8131E0380F898121E0280F8B81EC
S1130C409C81AC01632F822F28DF00000F900F904E
S1130C500F900F90DF91CF910895CF93DF9300D041
S1130C6000D0CDB7DEB79E838D831A8219820EC061
S1130C7089819A812D813E81820F931FFC0180819D
S1130C8092DE89819A8101969A83898389819A81E6
S1130C90883F91406CF31C821B820DC08B819C8128
S1130CA02D813E81820F931FFC0110828B819C81D8
S1130CB001969C838B838B819C81883F914074F344
S1130CC0000026960FB6F894DEBF0FBECDBFDF91AD
S1130CD0CF9108952FD008F481E0089557D088F07B
S1130CE09F5790F0B92F9927B751A0F0D1F0660F14
S1130CF0771F881F991F1AF0BA95C9F712C0B1302F
S1130D0081F05ED0B1E008955BC0672F782F88270B
S1130D10B85F39F0B93FCCF3869577956795B3956D
S1130D20D9F73EF490958095709561957F4F8F4FDC
S1130D309F4F0895990F0008550FAA0BE0E8FEEFA6
S1130D4016161706E807F907C0F012161306E4078B
S1130D50F50798F0621B730B840B950B39F40A2684
S1130D6061F0232B242B252B21F408950A2609F462
S1130D70A140A6958FEF811D811D089557FD9058C0
S1130D80440F551F59F05F3F71F04795880F97FB4B
S1130D90991F61F09F3F79F0879508951216130605
S1130DA01406551FF2CF4695F1DF08C01616170634
S1130DB01806991FF1CF8695710561050894089569
S1130DC0E894BB2766277727CB0197F90895B2DF0C
S1130DD008F48FEF08950BD078C069D028F06ED056
S1130DE018F0952309F05AC05FC01124EACFC6DF7A
S1130DF0A0F3959FD1F3950F50E0551F629FF0012A
S1130E00729FBB27F00DB11D639FAA27F00DB11D82
S1130E10AA1F649F6627B00DA11D661F829F22270B
S1130E20B00DA11D621F739FB00DA11D621F839F92
S1130E30A00D611D221F749F3327A00D611D231F68
S1130E40849F600D211D822F762F6A2F11249F57B6
S1130E5050408AF0E1F088234AF0EE0FFF1FBB1FD9
S1130E60661F771F881F91505040A9F79E3F510578
S1130E7070F014C0A6CF5F3FECF3983EDCF3869588
S1130E8077956795B795F795E7959F5FC1F7FE2B23
S1130E90880F911D9695879597F9089597F99F67FF
S1130EA080E870E060E008959FEF80EC08950024EE
S1130EB00A941616170618060906089500240A94BB
S1130EC012161306140605060895092E0394000C41
S1130ED011F4882352F0BB0F40F4BF2B11F460FFD0
S1130EE004C06F5F7F4F8F4F9F4F0895F894FFCFDB
S1130EF03134372A3235383033363923414243448A
S1070F0003000100E5
S9030000FC
