S0150000536E616B6541444465426F73732E7372656358
S113000071C000008FC000008DC000008BC00000D4
S113001089C0000087C0000085C0000083C00000C4
S113002081C000007FC000007DC000007BC00000D4
S113003079C0000077C0000075C0000073C00000E4
S113004071C000006FC000006DC000006BC00000F4
S113005069C0000067C0000065C0000063C0000004
S113006061C000005FC000005DC000005BC0000014
S113007059C0000057C0000055C0000053C0000024
S113008051C000004FC000004DC000004BC0000034
S113009049C0000047C0000045C0000043C0000044
S11300A041C000003FC000003DC000003BC0000054
S11300B039C0000037C0000035C0000033C0000064
S11300C031C000002FC000002DC000002BC0000074
S11300D029C0000027C0000025C0000023C0000084
S11300E021C0000011241FBECFEFD1E2DEBFCDBF7F
S11300F000E00CBF15E0A0E0B2E0E8E5FDE100E0BF
S11301000BBF02C007900D92A837B107D9F72BE0B7
S1130110A8E7B5E001C01D92AB36B207E1F796D16E
S11301200C94AA0E6DCFFC010FB6F8946091670B86
S11301307091680B8091690B90916A0B0FBE309798
S113014021F060837183828393830895CF93DF9337
S1130150CDB7DEB72C970FB6F894DEBF0FBECDBF78
S11301609A8789877C876B870E94380EAC018985C2
S11301709A859C0122503109CA01B9010E94CA0D15
S11301809A8389830E94380E9C018B859C850297F3
S1130190822393239C838B8389819A819E838D837D
S11301A08B819C8198878F838D819E81AF81B88557
S11301B0BC01CD012C960FB6F894DEBF0FBECDBFA7
S11301C0DF91CF910895CF93DF93CDB7DEB781E26E
S11301D090E021E230E0F90120812F7AFC012083B4
S11301E087E290E027E230E0F90120812F75FC01DD
S11301F020838AE290E02AE230E0F90120812F6036
S1130200FC0120838BE290E02BE230E0F9012081B5
S11302102F60FC01208384E290E02FEFFC01208317
S11302200000DF91CF910895CF93DF93CDB7DEB770
S113023060970FB6F894DEBF0FBECDBF109278055D
S11302401A821982F3C08BE290E02BE230E0F901CC
S113025020812F60FC0120838BE290E02BE230E0D0
S1130260F9012081422F21E030E0098002C0220FF1
S1130270331F0A94E2F720952423FC01208380E0B5
S113028090E0A0E8BFE38B839C83AD83BE8320E032
S113029030E04AE755E46B817C818D819E810E9428
S11302A03F0DDC01CB018F839887A987BA8720E0B3
S11302B030E040E85FE36F81788589859A850E9404
S11302C0810C88232CF481E090E09C878B873FC0CD
S11302D020E03FEF4FE757E46F81788589859A8561
S11302E00E943B0D18164CF520E030E040E251E44A
S11302F06B817C818D819E810E943F0DDC01CB014D
S1130300BC01CD010E94850CDC01CB019C878B874D
S11303100FC080E991E09E878D878D859E8501972A
S1130320F1F79E878D878B859C8501979C878B87AA
S11303308B859C85892B69F714C06F8178858985A5
S11303409A850E94850CDC01CB019C878B878B8569
S11303509C85988B8F878F8598890197F1F7988B67
S11303608F8780E290E0FC018081882F90E080718B
S11303709927892B79F489819A81880F991F880F8D
S1130380991F8C5F9D4FFC0180818093780580913B
S1130390780553C080E290E0FC018081882F90E0D2
S11303A080749927892B79F489819A81880F991F00
S11303B0880F991F8B5F9D4FFC0180818093780586
S11303C0809178053AC086E290E0FC018081882320
S11303D07CF089819A81880F991F880F991F8A5F01
S11303E09D4FFC018081809378058091780525C01C
S11303F086E290E0FC018081882F90E0807299274A
S1130400892B79F489819A81880F991F880F991F04
S1130410895F9D4FFC0180818093780580917805E8
S11304200CC089819A8101969A83898389819A81F2
S113043004970CF408CF8091780560960FB6F89471
S1130440DEBF0FBECDBFDF91CF910895CF93DF9371
S1130450CDB7DEB76A970FB6F894DEBF0FBECDBF37
S1130460B2DE1ED280E090E05EDEDC01CB010E94B1
S11304703B0ED8D184E192E00E94A10A0000D4DEB0
S11304808A32E9F780916F0590917005019709F020
S1130490FCC080916D0590916E052FE230E043E53C
S11304A050E0BC0183E895E0B2D48AE0E3E8F5E0EB
S11304B0DE01519601900D928A95E1F729893A89D6
S11304C08091630B9091640B0396281739070CF005
S11304D08CC089899A899C012E5F3F4F8091630B60
S11304E09091640B821793070CF07FC02B893C8991
S11304F08091650B9091660B0296281739070CF0D2
S113050074C08B899C899C012E5F3F4F8091650B41
S11305109091660B0197821793070CF066C06FE207
S113052070E083E590E012DEDC01CB018093630B85
S11305309093640BA093650BB093660B80916D054B
S113054090916E05019690936E0580936D05809150
S1130550710590917205892B49F0809171059091F4
S113056072050197909372058093710580916D05D2
S113057090916E05BC0183E895E02CD780917905B4
S113058090917A05099751F08091790590917A05B7
S1130590019690937A058093790527C080917B0515
S11305A090917C05099771F080917B0590917C0571
S11305B0019690937C0580937B0510927A051092A6
S11305C0790513C080917D0590917E05099769F0A6
S11305D010927C0510927B0580917D0590917E059B
S11305E0019690937E0580937D058091650B909193
S11305F0660B282F8091630B9091640B4BE659E0B6
S1130600622F0E940B0C1A8219822AC089819A8156
S1130610880F991F9C01220F331F220F331F820F53
S1130620931F8B579A4FFC0180819181682F898198
S11306309A81880F991F9C01220F331F220F331FA9
S1130640820F931F8D579A4FFC01808191814BE655
S113065059E00E94D50B89819A8101969A838983F6
S113066080916D0590916E0529813A81281739078B
S11306706CF213D7019721F41092700510926F0554
S11306808BE699E00E94440C50C080916F059091D4
S11306907005892B09F049C08CE094E078D78091EB
S11306A073059091740554E1580F809179059091E8
S11306B07A05880F991F875A9A4FFC01808191818E
S11306C028E030E043E0652F91D780917305909145
S11306D074055AE0580F80917B0590917C05880F32
S11306E0991F875A9A4FFC018081918128E030E05C
S11306F043E0652F7BD78091730590917405582F43
S113070080917D0590917E05880F991F875A9A4F95
S1130710FC018081918128E030E043E0652F66D7B9
S1130720000082DD8A32E9F77DD0809171059091D5
S11307307205092E000CAA0BBB0BBC01CD010E9453
S1130740B30CDC01CB018B839C83AD83BE8320E09F
S113075030E04AE755E46B817C818D819E810E9463
S11307603F0DDC01CB018F839887A987BA8720E0EE
S113077030E040E85FE36F81788589859A850E943F
S1130780810C88232CF481E090E09C878B873FC008
S113079020E03FEF4FE757E46F81788589859A859C
S11307A00E943B0D18164CF520E030E040E251E485
S11307B06B817C818D819E810E943F0DDC01CB0188
S11307C0BC01CD010E94850CDC01CB019C878B8789
S11307D00FC080E991E09E878D878D859E85019766
S11307E0F1F79E878D878B859C8501979C878B87E6
S11307F08B859C85892B69F714C06F8178858985E1
S11308009A850E94850CDC01CB019C878B878B85A4
S11308109C85988B8F878F8598890197F1F7988BA2
S11308208F8730CECF93DF93CDB7DEB781E090E0F2
S11308309093700580936F0560E080E0FFD050D105
S113084060E080E0FBD080916D0590916E05BC0165
S113085083E895E051D26FE270E083E590E076DCC6
S1130860DC01CB018093630B9093640BA093650B25
S1130870B093660B10927A051092790510927C055C
S113088010927B0510927E0510927D058CE390E01A
S113089090937205809371050000DF91CF910895C4
S11308A0CF93DF93CDB7DEB703D681E290E021E2A8
S11308B030E0F90120812760FC01208382E290E08E
S11308C022E230E0F90120812B7FFC01208382E2C7
S11308D090E022E230E0F90120812160FC012083D4
S11308E082E290E022E230E0F90120812260FC0102
S11308F020830FD081E2BFD080ECBDD083E1BBD098
S113090080E2B9D08CE0B7D0EBD00000DF91CF917A
S11309100895CF93DF93CDB7DEB72E970FB6F89433
S1130920DEBF0FBECDBF82E290E022E230E0F901EB
S113093020812E7FFC01208380E090E0A8ECB2E4CB
S113094089839A83AB83BC8320E030E04AE755E493
S113095069817A818B819C810E943F0DDC01CB01EE
S11309608D839E83AF83B88720E030E040E85FE367
S11309706D817E818F819885C4D788232CF481E092
S113098090E09A8789873DC020E03FEF4FE757E426
S11309906D817E818F8198850E943B0D181644F5E8
S11309A020E030E040E251E469817A818B819C81CE
S11309B00E943F0DDC01CB01BC01CD01A6D7DC01B7
S11309C0CB019A8789870FC080E991E09C878B8748
S11309D08B859C850197F1F79C878B8789859A8500
S11309E001979A87898789859A85892B69F713C026
S11309F06D817E818F81988588D7DC01CB019A87B0
S1130A00898789859A859E878D878D859E8501979F
S1130A10F1F79E878D8782E290E022E230E0F901CF
S1130A2020812160FC01208300002E960FB6F894EB
S1130A30DEBF0FBECDBFDF91CF910895CF93DF937B
S1130A401F921F92CDB7DEB789836A83898184356B
S1130A5050F48A81863048F4898180680CD08A8178
S1130A60806409D003C0000001C000000F900F9003
S1130A70DF91CF910895CF93DF931F92CDB7DEB767
S1130A80898382E290E022E230E0F90120812D7F27
S1130A90FC01208389811ED582E290E022E230E0CD
S1130AA0F90120812260FC01208300000F90DF9176
S1130AB0CF910895CF93DF931F92CDB7DEB789838B
S1130AC082E290E022E230E0F90120812260FC0120
S1130AD020838981FFD400000F90DF91CF91089586
S1130AE0CF93DF931F921F92CDB7DEB71A8219827C
S1130AF007C080E0DFDF89819A8101969A83898328
S1130B0089819A81883F9140A4F300000F900F904F
S1130B10DF91CF910895CF93DF93CDB7DEB7809166
S1130B20750590917605019759F010928005109201
S1130B307F058FEF9FEF909376058093750501C035
S1130B400000DF91CF910895CF93DF93CDB7DEB747
S1130B508091750590917605019659F01092800563
S1130B6010927F0581E090E090937605809375055F
S1130B7001C00000DF91CF910895CF93DF93CDB7EB
S1130B80DEB780917F0590918005019759F08FEF32
S1130B909FEF9093800580937F05109276051092C5
S1130BA0750501C00000DF91CF910895CF93DF93C5
S1130BB0CDB7DEB780917F0590918005019659F0FD
S1130BC0109276051092750581E090E0909380056F
S1130BD080937F0501C00000DF91CF910895CF93EA
S1130BE0DF93CDB7DEB720DB883309F4DFDF1CDB0E
S1130BF0823309F4C2DF18DB863309F4A5DF14DB82
S1130C00843309F488DF0000DF91CF910895CF93F6
S1130C10DF93CDB7DEB76A970FB6F894DEBF0FBE89
S1130C20CDBF988F8F8B7A8F698F8F89988D2AE0AB
S1130C30FC01DE01139601900D922A95E1F781E003
S1130C4090E09A83898346C089819A81880F991F8D
S1130C509C01220F331F220F331F820F931F2F89F2
S1130C60388D820F931F2AE0FC01DE011D9601904E
S1130C700D922A95E1F72B813C818D859E85029604
S1130C802817390714F58B819C819C012E5F3F4FF7
S1130C908D859E8582179307C4F42D813E818F85AF
S1130CA0988902962817390784F48D819E819C01C6
S1130CB02E5F3F4F8F8598898217930734F481E024
S1130CC090E0909382058093810589819A810196B1
S1130CD09A83898329813A81898D9A8D28173907C6
S1130CE00CF4B2CF00006A960FB6F894DEBF0FBEC4
S1130CF0CDBFDF91CF910895CF93DF93CDB7DEB70A
S1130D006A970FB6F894DEBF0FBECDBF988F8F8B56
S1130D107A8F698F898D9A8D181619060CF06DC01B
S1130D20298D3A8D8F89988DA90160E070E0AED746
S1130D30109282051092810581E090E090937605EF
S1130D40809375051092800510927F051C821B828A
S1130D501E821D8218861F821A8619861C861B868F
S1130D608F89988D2AE0FE013396DC0101900D9263
S1130D702A95E1F781E090E09A83898336C08EEF6B
S1130D809FEF9E878D878EEF9FEF988B8F8789814A
S1130D909A81880F991F9C01220F331F220F331F42
S1130DA0820F931F0A972F89388D820F931F9E8B72
S1130DB08D8B89819A81880F991F9C01220F331F83
S1130DC0220F331F820F931F2F89388D820F931F99
S1130DD02AE0FE013D96DC0101900D922A95E1F78F
S1130DE089819A8101969A83898329813A81898D9F
S1130DF09A8D281739071CF201C000006A960FB6B5
S1130E00F894DEBF0FBECDBFDF91CF910895CF938D
S1130E10DF93CDB7DEB72A970FB6F894DEBF0FBEC7
S1130E20CDBF9C838B837E836D8358874F833A87A2
S1130E302987D5DE1A821982B5C289819A81880FE1
S1130E40991F9C01220F331F220F331F820F931F00
S1130E502B813C81820F931FFC0180859185892B16
S1130E6009F005C289819A81880F991F9C01220F7C
S1130E70331F220F331F820F931F2B813C81280FB6
S1130E80391F89819A81880F991FAC01440F551F1E
S1130E90440F551F840F951F4B815C81840F951F50
S1130EA0FC0180819181F9019583848389819A81F0
S1130EB0880F991F9C01220F331F220F331F820FAB
S1130EC0931F2B813C81280F391F89819A81880FB8
S1130ED0991FAC01440F551F440F551F840F951FD4
S1130EE04B815C81840F951FFC0182819381F90100
S1130EF09783868389819A81880F991F9C01220F89
S1130F00331F220F331F820F931F2B813C81820FCB
S1130F10931FFC01808191819C012F5F3F4F8F8142
S1130F209885821793070CF03FC089819A81880FB6
S1130F30991F9C01220F331F220F331F820F931F0F
S1130F402B813C81820F931FFC01118210828981C5
S1130F509A81880F991F9C01220F331F220F331F80
S1130F60820F931F2B813C81280F391F89819A811D
S1130F70880F991FAC01440F551F440F551F840F50
S1130F80951F4B815C81840F951FFC014281538125
S1130F9080917F0590918005880F991F840F951F7C
S1130FA0F90193838283F9C189819A81880F991FFA
S1130FB09C01220F331F220F331F820F931F2B819B
S1130FC03C81820F931FFC018081918199230CF055
S1130FD043C089819A81880F991F9C01220F331F76
S1130FE0220F331F820F931F2B813C81820F931F8B
S1130FF02F81388521503109FC0131832083898177
S11310009A81880F991F9C01220F331F220F331FCF
S1131010820F931F2B813C81280F391F89819A816C
S1131020880F991FAC01440F551F440F551F840F9F
S1131030951F4B815C81840F951FFC014281538174
S113104080917F0590918005880F991F840F951FCB
S1131050F90193838283A1C189819A81880F991FA1
S11310609C01220F331F220F331F820F931F2B81EA
S11310703C81820F931FFC01828193819C012F5F2D
S11310803F4F89859A85821793070CF03FC0898169
S11310909A81880F991F9C01220F331F220F331F3F
S11310A0820F931F2B813C81820F931FFC011382BB
S11310B0128289819A81880F991F9C01220F331F04
S11310C0220F331F820F931F2B813C81280F391F5E
S11310D089819A81880F991FAC01440F551F440FD1
S11310E0551F840F951F4B815C81840F951FFC0154
S11310F0408151818091750590917605880F991FE3
S1131100840F951FF9019183808347C189819A8156
S1131110880F991F9C01220F331F220F331F820F48
S1131120931F2B813C81820F931FFC018281938149
S113113099230CF043C089819A81880F991F9C01DF
S1131140220F331F220F331F820F931F2B813C81E9
S1131150820F931F29853A8521503109FC0133837D
S1131160228389819A81880F991F9C01220F331F42
S1131170220F331F820F931F2B813C81280F391FAD
S113118089819A81880F991FAC01440F551F440F20
S1131190551F840F951F4B815C81840F951FFC01A3
S11311A0408151818091750590917605880F991F32
S11311B0840F951FF90191838083EFC089819A81FF
S11311C0880F991F9C01220F331F220F331F820F98
S11311D0931F2B813C81280F391F89819A81880FA5
S11311E0991FAC01440F551F440F551F840F951FC1
S11311F04B815C81840F951FFC014081518180915A
S1131200750590917605880F991F840F951FF90134
S11312109183808389819A81880F991F9C01220F71
S1131220331F220F331F820F931F2B813C81280F02
S1131230391F89819A81880F991FAC01440F551F6A
S1131240440F551F840F951F4B815C81840F951F9C
S1131250FC014281538180917F0590918005880F24
S1131260991F840F951FF9019383828396C0898106
S11312709A81880F991F9C01220F331F220F331F5D
S1131280820F931F2B813C81280F391F89819A81FA
S1131290880F991FAC01440F551F440F551F840F2D
S11312A0951F4B815C81840F951FFC018081918186
S11312B0F9019583848389819A81880F991F9C0100
S11312C0220F331F220F331F820F931F2B813C8168
S11312D0280F391F89819A81880F991FAC01440F07
S11312E0551F440F551F840F951F4B815C81840F3C
S11312F0951FFC0182819381F901978386838981FB
S11313009A81880F991F9C01220F331F220F331FCC
S1131310820F931F2B813C81280F391F89819A8169
S1131320880F991FAC01440F551F440F551F840F9C
S1131330951F4B815C81840F951FFC0180859185ED
S1131340FC0184819581F9019183808389819A814B
S1131350880F991F9C01220F331F220F331F820F06
S1131360931F2B813C81280F391F89819A81880F13
S1131370991FAC01440F551F440F551F840F951F2F
S11313804B815C81840F951FFC0180859185FC0154
S113139086819781F9019383828389819A81019659
S11313A09A83898329813A818D819E8128173907FF
S11313B00CF443CD2D813E818B819C81B90127DCC6
S11313C000002A960FB6F894DEBF0FBECDBFDF91A2
S11313D0CF910895CF93DF93CDB7DEB768970FB65B
S11313E0F894DEBF0FBECDBF9E8B8D8B788F6F8B35
S11313F08F89988D880F991F9C01220F331F220F0C
S1131400331F820F931F44972D893E89820F931FA8
S11314102AE0FC01CE010196DC0101900D922A958F
S1131420E1F78D819E819C878B878F8198859E872C
S11314308D878F89988D880F991F9C01220F331FE8
S1131440220F331F820F931F44972D893E89820FE9
S1131450931F9C8B8B8B8F89988D880F991F9C0170
S1131460220F331F220F331F820F931F0A972D89D8
S11314703E89820F931F2AE0FE013B96DC01019016
S11314800D922A95E1F7000068960FB6F894DEBF36
S11314900FBECDBFDF91CF910895CF93DF93CDB72A
S11314A0DEB78091810590918205DF91CF910895F7
S11314B0CF93DF93CDB7DEB784E290E027E0FC0161
S11314C020838CE490E021E5FC0120830000DF917F
S11314D0CF910895CF93DF9300D0CDB7DEB78B8340
S11314E085E290E025E230E0F90120812E7FFC01C5
S11314F020838EE490E02B81FC0120831A821982E0
S113150005C089819A8101969A8389838DE490E04C
S1131510FC0180818823ACF78EE490E0FC0180819B
S11315208B8385E290E025E230E0F901208121609F
S1131530FC01208300000F900F900F90DF91CF915A
S11315400895CF93DF9300D01F92CDB7DEB79C836D
S11315508B831A8219820EC089819A812B813C81E6
S1131560820F931FFC018081A5DA89819A810196FB
S11315709A83898389819A81883F91406CF3000022
S11315800F900F900F900F90DF91CF910895CF930C
S1131590DF9300D01F92CDB7DEB79C838B83A0DA94
S11315A060E080E04BDA1A8219820EC089819A8148
S11315B02B813C81820F931FFC0180817BDA89811E
S11315C09A8101969A83898389819A812B813C81AE
S11315D0820F931FFC0180818C3541F700000F902E
S11315E00F900F900F90DF91CF910895CF93DF93D9
S11315F0CDB7DEB728970FB6F894DEBF0FBECDBFC8
S11316009C838B836D834E8338872F836E818D817A
S113161015DA1A8219820EC089819A812B813C8144
S1131620820F931FFC01808145DA89819A8101969A
S11316309A83898329813A818F819885281739076C
S11316405CF3000028960FB6F894DEBF0FBECDBF42
S1131650DF91CF910895CF93DF93CDB7DEB728976D
S11316600FB6F894DEBF0FBECDBF8D836E8358874F
S11316704F838D81843508F08CC08E81803308F0CF
S11316808AC01A8219821C821B828E81883040F49F
S11316901A8219828E81882F90E09C838B8354C098
S11316A08E81883070F08E81803158F484E590E02A
S11316B09A8389838E81882F90E008979C838B83FB
S11316C043C08E81803170F08E81883158F488EA6D
S11316D090E09A8389838E81882F90E040979C8341
S11316E08B8332C08E81883170F08E81803258F4C1
S11316F08CEF90E09A8389838E81882F90E04897BD
S11317009C838B8321C08E81803270F08E818832DD
S113171058F480E591E09A8389838E81882F90E044
S113172080979C838B8310C08E81883268F08E8171
S1131730803350F484EA91E09A8389838E81882FE0
S113174090E088979C838B838D81282F30E089815A
S11317509A81820F931F2F813885820F931F2D81C9
S1131760422F50E029813A81240F351F4F8158853B
S1131770240F351FF9012081422F21E030E00B8036
S113178002C0220F331F0A94E2F7242BFC012083AA
S113179003C0000001C0000028960FB6F894DEBF15
S11317A00FBECDBFDF91CF910895CF93DF9300D0CB
S11317B01F92CDB7DEB789836A835C834B838B81A9
S11317C09C81AC016A81898146DF898121E0280FEF
S11317D08B819C81AC016A81822F3DDF8A8121E06B
S11317E0280F8B819C81AC01622F898134DF8A812F
S11317F031E0380F898121E0280F8B819C81AC0175
S1131800632F822F28DF00000F900F900F900F900E
S1131810DF91CF910895CF93DF9300D01F92CDB77E
S1131820DEB789836A835C834B838B819C81AC01A3
S11318306A81898110DF898122E0280F8B819C8154
S1131840AC016A81822F07DF8A8131E0380F8981F8
S113185021E0280F8B819C81AC01632F822FFBDE5A
S11318608A813FEF380F898121E0280F8B819C8189
S1131870AC01632F822FEFDE00000F900F900F90CA
S11318800F90DF91CF910895CF93DF9300D000D0D4
S1131890CDB7DEB79E838D831A8219820EC08981EB
S11318A09A812D813E81820F931FFC01808102D990
S11318B089819A8101969A83898389819A81883F53
S11318C091406CF31C821B820DC08B819C812D8105
S11318D03E81820F931FFC0110828B819C810196B3
S11318E09C838B838B819C81883F914074F300009F
S11318F026960FB6F894DEBF0FBECDBFDF91CF9111
S113190008956CD008F481E0089594D088F09F572E
S113191090F0B92F9927B751A0F0D1F0660F771F37
S1131920881F991F1AF0BA95C9F712C0B13081F017
S11319309BD0B1E0089598C0672F782F8827B85FAF
S113194039F0B93FCCF3869577956795B395D9F778
S11319503EF490958095709561957F4F8F4F9F4F82
S11319600895E89409C097FB3EF49095809570958E
S113197061957F4F8F4F9F4F9923A9F0F92F96E9D7
S1131980BB279395F695879577956795B795F1114C
S1131990F8CFFAF4BB0F11F460FF1BC06F5F7F4FE9
S11319A08F4F9F4F16C0882311F096E911C07723FB
S11319B021F09EE8872F762F05C0662371F096E804
S11319C0862F70E060E02AF09A95660F771F881FD3
S11319D0DAF7880F9695879597F90895990F000877
S11319E0550FAA0BE0E8FEEF16161706E807F907ED
S11319F0C0F012161306E407F50798F0621B730B88
S1131A00840B950B39F40A2661F0232B242B252B08
S1131A1021F408950A2609F4A140A6958FEF811DAB
S1131A20811D089557FD9058440F551F59F05F3F8D
S1131A3071F04795880F97FB991F61F09F3F79F0EC
S1131A4087950895121613061406551FF2CF46956E
S1131A50F1DF08C0161617061806991FF1CF8695F0
S1131A607105610508940895E894BB2766277727D4
S1131A70CB0197F90895B2DF08F48FEF08950BD0E6
S1131A8078C069D028F06ED018F0952309F05AC0B8
S1131A905FC01124EACFC6DFA0F3959FD1F3950F61
S1131AA050E0551F629FF001729FBB27F00DB11DDE
S1131AB0639FAA27F00DB11DAA1F649F6627B00D6E
S1131AC0A11D661F829F2227B00DA11D621F739F57
S1131AD0B00DA11D621F839FA00D611D221F749F65
S1131AE03327A00D611D231F849F600D211D822FAC
S1131AF0762F6A2F11249F5750408AF0E1F08823F3
S1131B004AF0EE0FFF1FBB1F661F771F881F9150FF
S1131B105040A9F79E3F510570F014C0A6CF5F3F17
S1131B20ECF3983EDCF3869577956795B795F79532
S1131B30E7959F5FC1F7FE2B880F911D96958795BA
S1131B4097F9089597F99F6780E870E060E0089539
S1131B509FEF80EC089500240A94161617061806C1
S1131B600906089500240A9412161306140605069D
S1131B700895092E0394000C11F4882352F0BB0F2E
S1131B8040F4BF2B11F460FF04C06F5F7F4F8F4F91
S1131B909F4F089597FB072E16F4009406D077FD07
S1131BA008D00BD007FC05D03EF4909581959F4F4B
S1131BB00895709561957F4F0895AA1BBB1B51E151
S1131BC007C0AA1FBB1FA617B70710F0A61BB70BA9
S1131BD0881F991F5A95A9F780959095BC01CD014E
S1131BE008958F929F92AF92BF92CF92DF92EF921D
S1131BF0FF92CF93DF93EC01688179818A819B8185
S1131C00611571058105910521F464E279ED8BE597
S1131C1097E02DE133EF41E050E03FD049015A0114
S1131C209B01AC01A7EAB1E454D06B017C01ACEE9A
S1131C30B4EFA501940159D0DC01CB018C0D9D1D9D
S1131C40AE1DBF1DB7FF03C00197A109B04888832B
S1131C509983AA83BB839F77DF91CF91FF90EF9005
S1131C60DF90CF90BF90AF909F908F900895B9CFA1
S1131C7080E092E0B6CFA0E0B0E0809300029093C1
S1131C800102A0930202B09303020895DC0101C093
S1131C906D9341505040E0F70895052E97FB16F4DC
S1131CA000940FD057FD05D024D007FC02D046F491
S1131CB008C050954095309521953F4F4F4F5F4F49
S1131CC0089590958095709561957F4F8F4F9F4FA4
S1131CD0089531D0A59F900DB49F900DA49F800DC1
S1131CE0911D11240895B7FFF4CFF3DF821B930BEA
S1131CF00895A1E21A2EAA1BBB1BFD010DC0AA1F49
S1131D00BB1FEE1FFF1FA217B307E407F50720F060
S1131D10A21BB30BE40BF50B661F771F881F991FDB
S1131D201A9469F760957095809590959B01AC0124
S1131D30BD01CF010895A29FB001B39FC001A39F2D
S1131D40700D811D1124911DB29F700D811D1124F0
S10B1D50911D0895F894FFCFE2
S1131D58010000003134372A32353830333639231C
S1131D68414243440070F8D89800F0F818F8F0009D
S1131D7800F0F898F8F00000F8F840F0F8180800B7
S1131D88F0F8D8D80000000000F0F898F8F0000047
S1131D980000000000000000000000000000000037
S1131DA80000000000000000000000000000000027
S1131DB800000000000000000606060303000707F1
S1131DC800070700000707010707000007070003CB
S1131DD80707040003070606000000000087878140
S1131DE88787800000000000000000000000000059
S1131DF880808080800000000000000000000080D7
S1131E088080000080808000000000000000000046
S1131E1800000000000000000000000000000000B6
S1131E2800000000000000000000000000000000A6
S1131E38007F7F016161733F1E3C7E666E6E0C00FD
S1131E48000000007F7F016D7F3B3C7E66667E3C20
S1131E580060676F3D3960676F3D3900000000001E
S1131E680000000000000000000000000000000066
S1131E78000000F8080808080808080808080808FE
S1131E8808080808080808080808080808080808C6
S1131E98080808080808080808080808F8000000DE
S1131EA80000000000000000000000000000000026
S1131EB80000000000000000000000000000000016
S1131EC800000000000000FF000000000000000007
S1131ED8000000E0E0606060606060606060607EF8
S1131EE87E0606060606060000000002050200003B
S1131EF8FF000000000000000000000000000000D7
S1131F0800000000000000000000000000000000C5
S1131F1800000000000000000000003F20202020F6
S1131F28202020262626262727202020202020207F
S1131F382020202020202020202020202020202095
S1131F48202020203F0000000000000000000000C6
S1131F580000000000000000000000000000000075
S1131F680000F8F8808080808080F8F80000D8D8D5
S1131F78000080C0C0C0C0800000FCFC80C0C0C09D
S1131F88800000E0F0B89898981000000080C0C065
S1131F98C0C080000080C0C0C0C00000C0C080C0F5
S1131FA8C0C0000080C0C0C0C080000000000000A5
S1131FB80000000000003F3F0101010101013F3F13
S1131FC800003F3F001F3F3130B8FFFF00003F3F94
S1131FD80100003F3F001C3C31313131191F0F0013
S1131FE80E1F3130303919000F1F3130301F0F00E8
S1131FF83F3F01000303000F1F3D36363313000033
S113200800000000000000000000000000000000C4
S113201800000000000000000003030303030100A4
S113202800000000000000000000000000000000A4
S11320380000000000000000000000000000000094
S11320480000000000000000000000000000000084
S113205800000000000000005C10107EFFD3FF7E2B
S11320681010D6D6FFFFD0D01010F6F6D3DBDFD68B
S113207810101076D3DBFF76101030383C36FFFF93
S11320883010107FDFDBFB7310101078FCDEFB715F
S113209810101013D3F33B1713101076FFDBFF76E1
S11320A81010101E9FDB7F1E10090511051905214C
S11320B80529053105390541054905510519000169
S10B20C8003C0032000100009D
S9030000FC
