S0150000536E616B6541444465426F73732E7372656358
S113000071C000008FC000008DC000008BC00000D4
S113001089C0000087C0000085C0000083C00000C4
S113002081C000007FC000007DC000007BC00000D4
S113003079C0000077C0000075C0000073C00000E4
S113004071C000006FC000006DC000006BC00000F4
S113005069C0000067C0000065C0000063C0000004
S113006061C000005FC000005DC000005BC0000014
S113007059C0000057C0000055C0000053C0000024
S113008051C000004FC000004DC000004BC0000034
S113009049C0000047C0000045C0000043C0000044
S11300A041C000003FC000003DC000003BC0000054
S11300B039C0000037C0000035C0000033C0000064
S11300C031C000002FC000002DC000002BC0000074
S11300D029C0000027C0000025C0000023C0000084
S11300E021C0000011241FBECFEFD1E2DEBFCDBF7F
S11300F000E00CBF12E0A0E0B2E0E6E2F3E100E0D1
S11301000BBF02C007900D92A431B107D9F727E0C5
S1130110A4E1B2E001C01D92A73FB207E1F73FD1CD
S11301200C9491096DCFCF93DF93CDB7DEB781E205
S113013090E021E230E0F90120812F7AFC01208354
S113014087E290E027E230E0F90120812F75FC017D
S113015020838AE290E02AE230E0F90120812F60D6
S1130160FC0120838BE290E02BE230E0F901208156
S11301702F60FC01208384E290E02FEFFC012083B8
S11301800000DF91CF910895CF93DF93CDB7DEB711
S113019060970FB6F894DEBF0FBECDBF1A821982E6
S11301A0EEC08BE290E02BE230E0F90120812F6079
S11301B0FC0120838BE290E02BE230E0F901208106
S11301C0422F21E030E0098002C0220F331F0A943D
S11301D0E2F720952423FC01208380E090E0A0E84E
S11301E0BFE38B839C83AD83BE8320E030E04AE78A
S11301F055E46B817C818D819E810E940609DC011E
S1130200CB018F839887A987BA8720E030E040E844
S11302105FE36F81788589859A8577D788232CF465
S113022081E090E09C878B873BC020E03FEF4FE765
S113023057E46F81788589859A85E4D718163CF54B
S113024020E030E040E251E46B817C818D819E812D
S1130250DDD7DC01CB01BC01CD015BD7DC01CB01D7
S11302609C878B870FC080E991E09E878D878D8561
S11302709E850197F1F79E878D878B859C850197D5
S11302809C878B878B859C85892B69F713C06F812D
S1130290788589859A853DD7DC01CB019C878B873E
S11302A08B859C85988B8F878F8598890197F1F72B
S11302B0988B8F8780E290E0FC018081882F90E00A
S11302C080719927892B79F489819A81880F991FE4
S11302D0880F991F80509E4FFC01808180931402E7
S11302E08091140253C080E290E0FC018081882F49
S11302F090E080749927892B79F489819A81880FF9
S1130300991F880F991F8F5F9D4FFC0180818093F7
S11303101402809114023AC086E290E0FC018081CC
S113032088237CF089819A81880F991F880F991FEF
S11303308E5F9D4FFC018081809314028091140292
S113034025C086E290E0FC018081882F90E08072D5
S11303509927892B79F489819A81880F991F880FAD
S1130360991F8D5F9D4FFC018081809314028091C1
S113037014020CC089819A8101969A8389838981A8
S11303809A8104970CF40DCF8091140260960FB6F5
S1130390F894DEBF0FBECDBFDF91CF910895CF9308
S11303A0DF93CDB7DEB7EC970FB6F894DEBF0FBE80
S11303B0CDBFF5D3B8DE1A8219820BC089819A8128
S11303C081509A4FFC01108289819A8101969A8307
S11303D0898389819A81883F914084F31E8A1D8A8A
S11303E0188E1F8A1A8E198E1C8E1B8E1E8E1D8EC1
S11303F08AE0FE017596A7E1B2E001900D928A951C
S1130400E1F718A21F8E1AA219A287E192E098A719
S11304108FA38AE0FE017F96A1E2B2E001900D92E3
S11304208A95E1F71AA619A61CA61BA61EA61DA648
S113043018AA1FA681E292E09AAB89AB8AE0FE017A
S1130440B996ABE2B2E001900D928A95E1F71CAA4D
S11304501BAA1EAA1DAA8BE292E09CAF8BAF8AE076
S1130460FE01F396A5E3B2E001900D928A95E1F7BF
S113047092D41C821B8262C28B819C81880F991F3B
S11304809C01220F331F220F331F820F931F815EA3
S11304909D4FFC0180819181892B09F0C4C18B811E
S11304A09C81880F991F9C01220F331F220F331F39
S11304B0820F931F895E9D4FFC01208131818B81C6
S11304C09C81880F991FAC01440F551F440F551F81
S11304D0840F951F855E9D4FFC01318320838B81A2
S11304E09C81880F991F9C01220F331F220F331FF9
S11304F0820F931F875E9D4FFC01208131818B8188
S11305009C81880F991FAC01440F551F440F551F40
S1130510840F951F835E9D4FFC01318320838B8163
S11305209C81880F991F9C01220F331F220F331FB8
S1130530820F931F895E9D4FFC01808191810196FA
S113054084359105CCF18B819C81880F991F9C0186
S1130550220F331F220F331F820F931F895E9D4F7B
S1130560FC01118210828B819C81880F991F9C0150
S1130570220F331F220F331F820F931F875E9D4F5D
S1130580FC01208131818091150290911602880F1F
S1130590991F280F391F8B819C81880F991FAC01EB
S11305A0440F551F440F551F840F951F875E9D4FA1
S11305B0FC0131832083BDC18B819C81880F991FED
S11305C09C01220F331F220F331F820F931F895E5A
S11305D09D4FFC01808191819923DCF58B819C8165
S11305E0880F991F9C01220F331F220F331F820F84
S11305F0931F895E9D4F22E530E0FC013183208307
S11306008B819C81880F991F9C01220F331F220F1D
S1130610331F820F931F875E9D4FFC012081318120
S11306208091150290911602880F991F280F391F87
S11306308B819C81880F991FAC01440F551F440F77
S1130640551F840F951F875E9D4FFC0131832083C6
S113065070C18B819C81880F991F9C01220F331FCD
S1130660220F331F820F931F875E9D4FFC018081F1
S113067091810196C097CCF18B819C81880F991F41
S11306809C01220F331F220F331F820F931F875E9B
S11306909D4FFC01118210828B819C81880F991FD0
S11306A09C01220F331F220F331F820F931F895E79
S11306B09D4FFC012081318180911202909113029F
S11306C0880F991F280F391F8B819C81880F991FD0
S11306D0AC01440F551F440F551F840F951F895EAD
S11306E09D4FFC013183208324C18B819C81880F21
S11306F0991F9C01220F331F220F331F820F931F58
S1130700875E9D4FFC01808191819923DCF58B816B
S11307109C81880F991F9C01220F331F220F331FC6
S1130720820F931F875E9D4F2EE230E0FC013183E0
S113073020838B819C81880F991F9C01220F331F7A
S1130740220F331F820F931F895E9D4FFC0120816E
S113075031818091120290911302880F991F280F02
S1130760391F8B819C81880F991FAC01440F551F41
S1130770440F551F840F951F895E9D4FFC013183E3
S11307802083D7C08B819C81880F991F9C01220FE5
S1130790331F220F331F820F931F895E9D4FFC016D
S11307A0208131818091120290911302880F991F48
S11307B0280F391F8B819C81880F991FAC01440F2E
S11307C0551F440F551F840F951F895E9D4FFC01D3
S11307D0318320838B819C81880F991F9C01220F78
S11307E0331F220F331F820F931F875E9D4FFC011F
S11307F0208131818091150290911602880F991FF2
S1130800280F391F8B819C81880F991FAC01440FDD
S1130810551F440F551F840F951F875E9D4FFC0184
S11308203183208386C08B819C81880F991F9C0112
S1130830220F331F220F331F820F931F895E9D4F98
S1130840FC01208131818B819C81880F991FAC012F
S1130850440F551F440F551F840F951F855E9D4FF0
S1130860FC01318320838B819C81880F991F9C011B
S1130870220F331F220F331F820F931F875E9D4F5A
S1130880FC01208131818B819C81880F991FAC01EF
S1130890440F551F440F551F840F951F835E9D4FB2
S11308A0FC01318320838B819C81880F991F9C01DB
S11308B0220F331F220F331F820F931F815E9D4F20
S11308C0FC0180819181FC01248135818B819C8193
S11308D0880F991FAC01440F551F440F551F840FF7
S11308E0951F895E9D4FFC01318320838B819C8100
S11308F0880F991F9C01220F331F220F331F820F71
S1130900931F815E9D4FFC0180819181FC012681B2
S113091037818B819C81880F991FAC01440F551F2F
S1130920440F551F840F951F875E9D4FFC01318333
S113093020838B819C8101969C838B838091100200
S1130940909111022B813C81281739070CF494CD26
S1130950AAD04FEF55E064E184E161D31E821D8289
S113096029C08D819E81880F991F9C01220F331FFE
S1130970220F331F820F931F875E9D4FFC018081DE
S11309809181682F8D819E81880F991F9C01220F70
S1130990331F220F331F820F931F895E9D4FFC016B
S11309A0808191814FEF55E004D38D819E81019622
S11309B09E838D8380911002909111022D813E813E
S11309C02817390774F28FEF95E062D380E090E046
S11309D0A8ECB2E48F839887A987BA8720E030E037
S11309E04AE755E46F81788589859A850FD4DC01BF
S11309F0CB018B879C87AD87BE8720E030E040E841
S1130A005FE36B857C858D859E857FD388232CF45D
S1130A1081E090E0988B8F873BC020E03FEF4FE769
S1130A2057E46B857C858D859E85ECD318163CF543
S1130A3020E030E040E251E46F81788589859A8531
S1130A40E5D3DC01CB01BC01CD0163D3DC01CB01D7
S1130A50988B8F870FC080E991E09A8B898B898965
S1130A609A890197F1F79A8B898B8F8598890197D9
S1130A70988B8F878F859889892B69F713C06B852D
S1130A807C858D859E8545D3DC01CB01988B8F8732
S1130A908F8598899C8B8B8B8B899C890197F1F727
S1130AA09C8B8B8BE5CCCF93DF93CDB7DEB76CDB20
S1130AB0883309F45BD068DB823309F43ED064DB0D
S1130AC0863309F421D060DB843309F404D00000B8
S1130AD0DF91CF910895CF93DF93CDB7DEB78091A7
S1130AE0120290911302019759F01092160210927B
S1130AF015028FEF9FEF909313028093120201C0AF
S1130B000000DF91CF910895CF93DF93CDB7DEB787
S1130B108091120290911302019659F010921602DC
S1130B201092150281E090E09093130280931202D8
S1130B3001C00000DF91CF910895CF93DF93CDB72B
S1130B40DEB78091150290911602019759F08FEF4C
S1130B509FEF909316028093150210921302109245
S1130B60120201C00000DF91CF910895CF93DF936B
S1130B70CDB7DEB78091150290911602019659F017
S1130B80109213021092120281E090E090931602E8
S1130B908093150201C00000DF91CF910895CF9397
S1130BA0DF93CDB7DEB712D181E290E02FEFFC01E5
S1130BB0208382E290E022E230E0F901208121608A
S1130BC0FC01208382E290E022E230E0F9012081FE
S1130BD02260FC01208382E290E022E230E0F9010D
S1130BE020812B7FFC0120830FD081E29FD080ECF9
S1130BF09DD083E19BD080E299D08CE097D0CBD07C
S1130C000000DF91CF910895CF93DF93CDB7DEB786
S1130C102E970FB6F894DEBF0FBECDBF82E290E0F0
S1130C2022E230E0F90120812E7FFC01208380E064
S1130C3090E0A8ECB2E489839A83AB83BC8320E080
S1130C4030E04AE755E469817A818B819C81DED268
S1130C50DC01CB018D839E83AF83B88720E030E035
S1130C6040E85FE36D817E818F8198854ED2882331
S1130C702CF481E090E09A8789873BC020E03FEF25
S1130C804FE757E46D817E818F819885BBD218161A
S1130C903CF520E030E040E251E469817A818B81C7
S1130CA09C81B4D2DC01CB01BC01CD0132D2DC0188
S1130CB0CB019A8789870FC080E991E09C878B8755
S1130CC08B859C850197F1F79C878B8789859A850D
S1130CD001979A87898789859A85892B69F713C033
S1130CE06D817E818F81988514D2DC01CB019A8736
S1130CF0898789859A859E878D878D859E850197AD
S1130D00F1F79E878D8782E290E022E230E0F901DC
S1130D1020812160FC01208300002E960FB6F894F8
S1130D20DEBF0FBECDBFDF91CF910895CF93DF9388
S1130D301F92CDB7DEB7898382E290E022E230E0F1
S1130D40F90120812D7FFC012083898151D082E229
S1130D5090E022E230E0F90120812260FC0120834E
S1130D6000000F90DF91CF910895CF93DF931F92EE
S1130D70CDB7DEB7898382E290E022E230E0F90168
S1130D8020812260FC012083898132D000000F90F1
S1130D90DF91CF910895CF93DF931F921F92CDB728
S1130DA0DEB71A82198207C080E0DFDF89819A8169
S1130DB001969A83898389819A81883F9140A4F31B
S1130DC000000F900F90DF91CF910895CF93DF93A0
S1130DD0CDB7DEB784E290E027E0FC0120838CE409
S1130DE090E021E5FC0120830000DF91CF9108957C
S1130DF0CF93DF9300D0CDB7DEB78B8385E290E04D
S1130E0025E230E0F90120812E7FFC0120838EE46D
S1130E1090E02B81FC0120831A82198205C089810C
S1130E209A8101969A8389838DE490E0FC01808104
S1130E308823ACF78EE490E0FC0180818B8385E20B
S1130E4090E025E230E0F90120812160FC0120835B
S1130E5000000F900F900F90DF91CF910895CF93E2
S1130E60DF93CDB7DEB728970FB6F894DEBF0FBE79
S1130E70CDBF8D836E8358874F838D81843508F071
S1130E808CC08E81803308F08AC01A8219821C8239
S1130E901B828E81883040F41A8219828E81882FB9
S1130EA090E09C838B8354C08E81883070F08E8157
S1130EB0803158F484E590E09A8389838E81882F69
S1130EC090E008979C838B8343C08E81803170F0BF
S1130ED08E81883158F488EA90E09A8389838E81E0
S1130EE0882F90E040979C838B8332C08E81883119
S1130EF070F08E81803258F48CEF90E09A8389836D
S1130F008E81882F90E048979C838B8321C08E81AB
S1130F10803270F08E81883258F480E591E09A83B3
S1130F2089838E81882F90E080979C838B8310C067
S1130F308E81883268F08E81803350F484EA91E0A7
S1130F409A8389838E81882F90E088979C838B83F2
S1130F508D81282F30E089819A81820F931F2F8100
S1130F603885820F931F2D81422F50E029813A81C9
S1130F70240F351F4F815885240F351FF901208117
S1130F80422F21E030E00B8002C0220F331F0A946D
S1130F90E2F7242BFC01208303C0000001C0000001
S1130FA028960FB6F894DEBF0FBECDBFDF91CF9168
S1130FB00895CF93DF9300D01F92CDB7DEB7898316
S1130FC06A835C834B838B819C81AC016A818981B8
S1130FD046DF898121E0280F8B819C81AC016A81E5
S1130FE0822F3DDF8A8121E0280F8B819C81AC0117
S1130FF0622F898134DF8A8131E0380F898121E0D1
S1131000280F8B819C81AC01632F822F28DF000085
S11310100F900F900F900F90DF91CF910895CF9381
S1131020DF9300D01F92CDB7DEB789836A835C83D8
S11310304B838B819C81AC016A81898110DF89811A
S113104022E0280F8B819C81AC016A81822F07DF0B
S11310508A8131E0380F898121E0280F8B819C81BE
S1131060AC01632F822FFBDE8A813FEF380F898129
S113107021E0280F8B819C81AC01632F822FEFDE4E
S113108000000F900F900F900F90DF91CF91089573
S1131090CF93DF9300D000D0CDB7DEB79E838D838E
S11310A01A8219820EC089819A812D813E81820F14
S11310B0931FFC01808159DE89819A8101969A836C
S11310C0898389819A81883F91406CF31C821B82B9
S11310D00DC08B819C812D813E81820F931FFC0169
S11310E010828B819C8101969C838B838B819C8154
S11310F0883F914074F3000026960FB6F894DEBF43
S11311000FBECDBFDF91CF9108952FD008F481E0B9
S1131110089557D088F09F5790F0B92F9927B75169
S1131120A0F0D1F0660F771F881F991F1AF0BA95A7
S1131130C9F712C0B13081F05ED0B1E008955BC050
S1131140672F782F8827B85F39F0B93FCCF386959D
S113115077956795B395D9F73EF4909580957095FA
S113116061957F4F8F4F9F4F0895990F0008550F3A
S1131170AA0BE0E8FEEF16161706E807F907C0F019
S113118012161306E407F50798F0621B730B840B21
S1131190950B39F40A2661F0232B242B252B21F4FB
S11311A008950A2609F4A140A6958FEF811D811D9B
S11311B0089557FD9058440F551F59F05F3F71F043
S11311C04795880F97FB991F61F09F3F79F08795AA
S11311D00895121613061406551FF2CF4695F1DF33
S11311E008C0161617061806991FF1CF86957105C3
S11311F0610508940895E894BB2766277727CB01F7
S113120097F90895B2DF08F48FEF08950BD078C0F2
S113121069D028F06ED018F0952309F05AC05FC049
S11312201124EACFC6DFA0F3959FD1F3950F50E0C8
S1131230551F629FF001729FBB27F00DB11D639F84
S1131240AA27F00DB11DAA1F649F6627B00DA11D2A
S1131250661F829F2227B00DA11D621F739FB00DD0
S1131260A11D621F839FA00D611D221F749F332740
S1131270A00D611D231F849F600D211D822F762FD9
S11312806A2F11249F5750408AF0E1F088234AF0D6
S1131290EE0FFF1FBB1F661F771F881F9150504022
S11312A0A9F79E3F510570F014C0A6CF5F3FECF341
S11312B0983EDCF3869577956795B795F795E7950E
S11312C09F5FC1F7FE2B880F911D9695879597F91F
S11312D0089597F99F6780E870E060E008959FEFB4
S11312E080EC089500240A941616170618060906B9
S11312F0089500240A941216130614060506089588
S1131300092E0394000C11F4882352F0BB0F40F40F
S1131310BF2B11F460FF04C06F5F7F4F8F4F9F4F4F
S10913200895F894FFCFCC
S11313263134372A3235383033363923414243444F
S107133603000100AB
S9030000FC
