S0150000536E616B6541444465426F73732E7372656358
S21400000071C000008FC000008DC000008BC00000D3
S21400001089C0000087C0000085C0000083C00000C3
S21400002081C000007FC000007DC000007BC00000D3
S21400003079C0000077C0000075C0000073C00000E3
S21400004071C000006FC000006DC000006BC00000F3
S21400005069C0000067C0000065C0000063C0000003
S21400006061C000005FC000005DC000005BC0000013
S21400007059C0000057C0000055C0000053C0000023
S21400008051C000004FC000004DC000004BC0000033
S21400009049C0000047C0000045C0000043C0000043
S2140000A041C000003FC000003DC000003BC0000053
S2140000B039C0000037C0000035C0000033C0000063
S2140000C031C000002FC000002DC000002BC0000073
S2140000D029C0000027C0000025C0000023C0000083
S2140000E021C0000011241FBECFEFD1E2DEBFCDBF7E
S2140000F000E00CBF15E0A0E0B2E0E0E2F7E200E0CE
S2140001000BBF02C007900D92A438B107D9F72BE0B9
S214000110A4E8B5E001C01D92A937B207E1F709D2FD
S2140001200C948E136DCFFC010FB6F8946091750B8E
S2140001307091760B8091770B9091780B0FBE30976D
S21400014021F060837183828393830895CF93DF9336
S214000150CDB7DEB76D970FB6F894DEBF0FBECDBF36
S2140001609D8F8C8F80E09DEFA0E0B0E089839A831E
S214000170AB83BC8382E09DEFA0E0B0E08D839E83DE
S214000180AF83B88784E09DEFA0E0B0E089879A87C8
S214000190AB87BC8789819A81AB81BC818D879E871E
S2140001A0AF87B88B8D859E85AF85B889ABBFFC01C0
S2140001B08791898B29898C8D9D8DFC0120838C8D60
S2140001C09D8D9C012F5F3F4F8D819E81AF81B885AD
S2140001D08A8B9B8BAC8BBD8B8A899B89AC89BD89AE
S2140001E0ABBFFC0187918E8B8E89F90180838C8D45
S2140001F09D8D9C012E5F3F4F89859A85AB85BC857A
S2140002008F8B988FA98FBA8F8F89988DA98DBA8D6D
S214000210ABBFFC0187918B8F8B8DF901808300002B
S2140002206D960FB6F894DEBF0FBECDBFDF91CF91AF
S2140002300895CF93DF93CDB7DEB72C970FB6F8941B
S214000240DEBF0FBECDBF9A8789877C876B870E94EB
S2140002504110AC0189859A859C0122503109CA015A
S214000260B9010E94D30F9A8389830E9441109C0192
S2140002708B859C850297822393239C838B8389811D
S2140002809A819E838D838B819C8198878F838D81B5
S2140002909E81AF81B885BC01CD012C960FB6F8942F
S2140002A0DEBF0FBECDBFDF91CF910895CF93DF9312
S2140002B0CDB7DEB781E290E021E230E0F90120819F
S2140002C02F7AFC01208387E290E027E230E0F901F4
S2140002D020812F75FC0120838AE290E02AE230E03C
S2140002E0F90120812F60FC0120838BE290E02BE255
S2140002F030E0F90120812F60FC01208384E290E049
S2140003002FEFFC0120830000DF91CF910895CF935B
S214000310DF93CDB7DEB760970FB6F894DEBF0FBE9B
S214000320CDBF109284051A821982F3C08BE290E04A
S2140003302BE230E0F90120812F60FC0120838BE264
S21400034090E02BE230E0F9012081422F21E030E0FE
S214000350098002C0220F331F0A94E2F72095242357
S214000360FC01208380E090E0A0E8BFE38B839C83C1
S214000370AD83BE8320E030E04AE755E46B817C81A4
S2140003808D819E810E94480FDC01CB018F83988768
S214000390A987BA8720E030E040E85FE36F81788580
S2140003A089859A850E948A0E88232CF481E090E045
S2140003B09C878B873FC020E03FEF4FE757E46F8175
S2140003C0788589859A850E94440F18164CF520E09A
S2140003D030E040E251E46B817C818D819E810E94F9
S2140003E0480FDC01CB01BC01CD010E948E0EDC0162
S2140003F0CB019C878B870FC080E991E09E878D8715
S2140004008D859E850197F1F79E878D878B859C85C8
S21400041001979C878B878B859C85892B69F714C0F1
S2140004206F81788589859A850E948E0EDC01CB01C6
S2140004309C878B878B859C85988B8F878F859889E3
S2140004400197F1F7988B8F8780E290E0FC0180811E
S214000450882F90E080719927892B79F489819A8179
S214000460880F991F880F991F8C5F9D4FFC01808114
S214000470809384058091840553C080E290E0FC015F
S2140004808081882F90E080749927892B79F4898160
S2140004909A81880F991F880F991F8B5F9D4FFC01CB
S2140004A0808180938405809184053AC086E290E03E
S2140004B0FC01808188237CF089819A81880F991FAE
S2140004C0880F991F8A5F9D4FFC0180818093840569
S2140004D08091840525C086E290E0FC018081882F0B
S2140004E090E080729927892B79F489819A81880F08
S2140004F0991F880F991F895F9D4FFC01808180930B
S2140005008405809184050CC089819A8101969A831E
S214000510898389819A8104970CF408CF8091840599
S21400052060960FB6F894DEBF0FBECDBFDF91CF91B9
S2140005300895CF93DF93CDB7DEB7AE970FB6F89496
S214000540DEBF0FBECDBFB2DEB4D380E090E0EBDD01
S214000550DC01CB010E94441068D384E192E00E9443
S214000560AA0C0000D4DE8A32E9F7809177059091D4
S2140005707805019709F010C1809175059091760570
S2140005802FE230E043E550E0BC0181E995E048D633
S2140005908AE0E1E9F5E0DE01589601900D928A9531
S2140005A0E1F7288D398D8091710B9091720B03962F
S2140005B0281739070CF09FC0888D998D9C012E5FF7
S2140005C03F4F8091710B9091720B821793070CF03E
S2140005D092C02A8D3B8D8091730B9091740B02967E
S2140005E0281739070CF087C08A8D9B8D9C012E5FDB
S2140005F03F4F8091730B9091740B0197821793076E
S2140006000CF079C06FE270E083E590E012DEDC016A
S214000610CB018093710B9093720BA093730BB093E6
S214000620740B8091750590917605019690937605EA
S214000630809375058091790590917A05892B49F00C
S2140006408091790590917A05019790937A05809329
S21400065079058091750590917605BC0181E995E054
S2140006600E94F30B80917505909176050196909304
S2140006707605809375058091750590917605BC0189
S21400068081E995E00E94F30B80918505909186059F
S214000690099751F080918505909186050196909373
S2140006A086058093850527C08091870590918805EB
S2140006B0099771F08091870590918805019690932F
S2140006C0880580938705109286051092850513C0CD
S2140006D08091890590918A05099769F0109288059E
S2140006E0109287058091890590918A0501969093CE
S2140006F08A05809389058091730B9091740B282F3F
S2140007008091710B9091720B49E759E0622F0E941D
S214000710140E1A8219822AC089819A81880F991F1D
S2140007209C01220F331F220F331F820F931F8D56FB
S2140007309A4FFC0180819181682F89819A81880F68
S214000740991F9C01220F331F220F331F820F931F06
S2140007508F569A4FFC018081918149E759E00E94AB
S214000760DE0D89819A8101969A8389838091750529
S2140007709091760529813A81281739076CF20E94F4
S214000780560C019721F4109278051092770589E7A8
S21400079099E00E944D0ECCC1809177059091780526
S2140007A0892B09F0C5C18CE094E00E94D00C8091A2
S2140007B07B0590917C0550E1580F809185059091BE
S2140007C08605880F991F8F599A4FFC018081918169
S2140007D028E030E043E0652F0E94FF0C80917B0507
S2140007E090917C0558E0580F809187059091880578
S2140007F0880F991F8F599A4FFC018081918128E0BC
S21400080030E043E0652F0E94FF0CCE0182969EDC0E
S2140008108091870590918805880F982F990F990FDA
S214000820282F290F8091850590918605820F8E834B
S2140008308E818B831D821C823BC09E012E5D3F4FA6
S2140008408C819D81820F931FFC018081843648F045
S2140008509E012E5D3F4F8C819D81820F931FFC0170
S21400086010829E012E5D3F4F8C819D81820F931FCB
S214000870FC0190818B819817B0F49E012E5D3F4F4E
S2140008808C819D81820F931FFC0180818F839E0146
S2140008902E5D3F4F8C819D81820F931F2B81FC0123
S2140008A020838F818B838C819D8101969D838C8391
S2140008B08C819D8103970CF2188619868AA1882F51
S2140008C090E0292F2F938F938FE795E0892F8F93B2
S2140008D08FE795E08F93CE018596292F2F938F93E0
S2140008E00E9456100F900F900F900F900F900F9041
S2140008F08EA1805388878DA18053898780918B0530
S21400090090918C05582F809163059091640528E09E
S21400091030E042E0652F0E94FF0C80918B0590919D
S2140009208C05885F28E030E042E0682F89E595E096
S2140009300E94FF0C80918B0590918C0550E1580F1A
S2140009408985882F90E0880F991F8F599A4FFC0150
S2140009508081918128E030E042E0652F0E94FF0C04
S21400096080918B0590918C0558E1580F8885882FCB
S21400097090E0880F991F8F599A4FFC0180819181D2
S21400098028E030E042E0652F0E94FF0C8BA1882F04
S21400099090E0292F2F938F938FE795E0892F8F93E1
S2140009A08FE795E08F93CE018596292F2F938F930F
S2140009B00E9456100F900F900F900F900F900F9070
S2140009C08EA1805388878DA18053898780918B055F
S2140009D090918C05582F809165059091660528E0CA
S2140009E030E043E0652F0E94FF0C80918B059091CC
S2140009F08C05885F28E030E043E0682F89E595E0C5
S214000A00FED780918B0590918C0550E1580F898513
S214000A10882F90E0880F991F8F599A4FFC0180818C
S214000A20918128E030E043E0652FE9D780918B057F
S214000A3090918C0558E1580F8885882F90E0880F94
S214000A40991F8F599A4FFC018081918128E030E0F0
S214000A5043E0652FD4D78CA1882F90E0292F2F93C1
S214000A608F938FE795E0892F8F938FE795E08F938D
S214000A70CE018596292F2F938F930E9456100F90A4
S214000A800F900F900F900F900F908EA18053888735
S214000A908DA18053898780918B0590918C05582F66
S214000AA0809167059091680528E030E044E0652F66
S214000AB0A6D780918B0590918C05885F28E030E062
S214000AC044E0682F89E595E09AD780918B05909150
S214000AD08C0550E1580F8985882F90E0880F991F64
S214000AE08F599A4FFC018081918128E030E044E0E4
S214000AF0652F85D780918B0590918C0558E1580F0E
S214000B008885882F90E0880F991F8F599A4FFC018F
S214000B108081918128E030E044E0652F70D7CE01D7
S214000B2082960F9400FF0000F2DB8A32E9F77DD050
S214000B308091790590917A05092E000CAA0BBB0BC3
S214000B40BC01CD010E94BC0EDC01CB018A879B87CD
S214000B50AC87BD8720E030E04AE755E46A857B85B0
S214000B608C859D850E94480FDC01CB018E879F8770
S214000B70A88BB98B20E030E040E85FE36E857F8588
S214000B80888999890E948A0E88232CF481E090E057
S214000B909B8B8A8B3FC020E03FEF4FE757E46E8584
S214000BA07F85888999890E94440F18164CF520E0A5
S214000BB030E040E251E46A857B858C859D850E9405
S214000BC0480FDC01CB01BC01CD010E948E0EDC017A
S214000BD0CB019B8B8A8B0FC080E991E09D8B8C8B21
S214000BE08C899D890197F1F79D8B8C8B8A899B89CF
S214000BF001979B8B8A8B8A899B89892B69F714C0FE
S214000C006E857F85888999890E948E0EDC01CB01CE
S214000C109B8B8A8B8A899B899F8B8E8B8E899F89DB
S214000C200197F1F79F8B8E8BA0CCCF93DF93CDB738
S214000C30DEB781E090E0909378058093770584E0B6
S214000C4090E0909376058093750560E080E0FFD095
S214000C5050D160E080E0FBD08091750590917605DC
S214000C60BC0181E995E051D26FE270E083E590E047
S214000C70E0DADC01CB018093710B9093720BA093AA
S214000C80730BB093740B1092860510928505109224
S214000C9088051092870510928A05109289058CE3C4
S214000CA090E090937A05809379050000DF91CF91CC
S214000CB00895CF93DF93CDB7DEB703D681E290E0F9
S214000CC021E230E0F90120812760FC01208382E2E6
S214000CD090E022E230E0F90120812B7FFC012083A6
S214000CE082E290E022E230E0F90120812160FC01FE
S214000CF0208382E290E022E230E0F9012081226047
S214000D00FC0120830FD081E2BFD080ECBDD083E110
S214000D10BBD080E2B9D08CE0B7D0EBD00000DF913A
S214000D20CF910895CF93DF93CDB7DEB72E970FB64A
S214000D30F894DEBF0FBECDBF82E290E022E230E044
S214000D40F90120812E7FFC01208380E090E0A8EC52
S214000D50B2E489839A83AB83BC8320E030E04AE721
S214000D6055E469817A818B819C810E94480FDC0161
S214000D70CB018D839E83AF83B88720E030E040E8C8
S214000D805FE36D817E818F819885C4D788232CF49C
S214000D9081E090E09A8789873DC020E03FEF4FE7EB
S214000DA057E46D817E818F8198850E94440F1816C6
S214000DB044F520E030E040E251E469817A818B819D
S214000DC09C810E94480FDC01CB01BC01CD01A6D757
S214000DD0DC01CB019A8789870FC080E991E09C8768
S214000DE08B878B859C850197F1F79C878B878985F8
S214000DF09A8501979A87898789859A85892B69F7C5
S214000E0013C06D817E818F81988588D7DC01CB01E8
S214000E109A87898789859A859E878D878D859E8501
S214000E200197F1F79E878D8782E290E022E230E01C
S214000E30F90120812160FC01208300002E960FB668
S214000E40F894DEBF0FBECDBFDF91CF910895CF934C
S214000E50DF931F921F92CDB7DEB789836A8389819D
S214000E60843550F48A81863048F4898180680CD0B5
S214000E708A81806409D003C0000001C000000F9082
S214000E800F90DF91CF910895CF93DF931F92CDB748
S214000E90DEB7898382E290E022E230E0F901208129
S214000EA02D7FFC01208389811ED582E290E022E21C
S214000EB030E0F90120812260FC01208300000F90C1
S214000EC0DF91CF910895CF93DF931F92CDB7DEB712
S214000ED0898382E290E022E230E0F90120812260FC
S214000EE0FC0120838981FFD400000F90DF91CF9111
S214000EF00895CF93DF931F921F92CDB7DEB71A8265
S214000F00198207C080E0DFDF89819A8101969A8383
S214000F10898389819A81883F9140A4F300000F90CD
S214000F200F90DF91CF910895CF93DF93CDB7DEB7C3
S214000F3080917D0590917E05019759F010928E055F
S214000F4010928D058FEF9FEF90937E0580937D0521
S214000F5001C00000DF91CF910895CF93DF93CDB706
S214000F60DEB780917D0590917E05019659F010922E
S214000F708E0510928D0581E090E090937E0580931B
S214000F807D0501C00000DF91CF910895CF93DF93D8
S214000F90CDB7DEB780918D0590918E05019759F0FB
S214000FA08FEF9FEF90938E0580938D0510927E05B0
S214000FB010927D0501C00000DF91CF910895CF9378
S214000FC0DF93CDB7DEB780918D0590918E050196A3
S214000FD059F010927E0510927D0581E090E0909386
S214000FE08E0580938D0501C00000DF91CF91089596
S214000FF0CF93DF93CDB7DEB78AD9883309F4DFDF26
S21400100086D9823309F4C2DF82D9863309F4A5DF94
S2140010107ED9843309F488DF0000DF91CF910895EC
S214001020CF93DF93CDB7DEB76A970FB6F894DEBFDF
S2140010300FBECDBF988F8F8B7A8F698F8F89988DD3
S2140010402AE0FC01DE01139601900D922A95E1F745
S21400105081E090E09A83898346C089819A81880FCF
S214001060991F9C01220F331F220F331F820F931FDD
S2140010702F89388D820F931F2AE0FC01DE011D9612
S21400108001900D922A95E1F72B813C818D859E85F6
S21400109002962817390714F58B819C819C012E5FD8
S2140010A03F4F8D859E8582179307C4F42D813E8120
S2140010B08F85988902962817390784F48D819E813A
S2140010C09C012E5F3F4F8F8598898217930734F4D3
S2140010D081E090E09093900580938F0589819A81B6
S2140010E001969A83898329813A81898D9A8D28175A
S2140010F039070CF4B2CF00006A960FB6F894DEBF3C
S2140011000FBECDBFDF91CF910895CF93DF93CDB7BC
S214001110DEB76A970FB6F894DEBF0FBECDBF988FC6
S2140011208F8B7A8F698F898D9A8D181619060CF019
S2140011306DC0298D3A8D8F89988DA90160E070E089
S214001140AED71092900510928F0581E090E09093B4
S2140011507E0580937D0510928E0510928D051C826B
S2140011601B821E821D8218861F821A8619861C867E
S2140011701B868F89988D2AE0FE013396DC0101904C
S2140011800D922A95E1F781E090E09A83898336C034
S2140011908EEF9FEF9E878D878EEF9FEF988B8F87C2
S2140011A089819A81880F991F9C01220F331F220F75
S2140011B0331F820F931F0A972F89388D820F931F34
S2140011C09E8B8D8B89819A81880F991F9C01220F97
S2140011D0331F220F331F820F931F2F89388D820FE4
S2140011E0931F2AE0FE013D96DC0101900D922A95A0
S2140011F0E1F789819A8101969A83898329813A81C8
S214001200898D9A8D281739071CF201C000006A964E
S2140012100FB6F894DEBF0FBECDBFDF91CF91089515
S214001220CF93DF93CDB7DEB72A970FB6F894DEBF1D
S2140012300FBECDBF9C838B837E836D8358874F8381
S2140012403A872987D5DE1A821982B5C289819A81A2
S214001250880F991F9C01220F331F220F331F820F06
S214001260931F2B813C81820F931FFC018085918503
S214001270892B09F005C289819A81880F991F9C01E4
S214001280220F331F220F331F820F931F2B813C81A7
S214001290280F391F89819A81880F991FAC01440F46
S2140012A0551F440F551F840F951F4B815C81840F7B
S2140012B0951FFC0180819181F90195838483898142
S2140012C09A81880F991F9C01220F331F220F331F0C
S2140012D0820F931F2B813C81280F391F89819A81A9
S2140012E0880F991FAC01440F551F440F551F840FDC
S2140012F0951F4B815C81840F951FFC018281938131
S214001300F9019783868389819A81880F991F9C01AA
S214001310220F331F220F331F820F931F2B813C8116
S214001320820F931FFC01808191819C012F5F3F4FAC
S2140013308F819885821793070CF03FC089819A8128
S214001340880F991F9C01220F331F220F331F820F15
S214001350931F2B813C81820F931FFC011182108208
S21400136089819A81880F991F9C01220F331F220FB3
S214001370331F820F931F2B813C81280F391F8981D1
S2140013809A81880F991FAC01440F551F440F551FB3
S214001390840F951F4B815C81840F951FFC01428151
S2140013A0538180918D0590918E05880F991F840F2B
S2140013B0951FF90193838283F9C189819A81880FE9
S2140013C0991F9C01220F331F220F331F820F931F7A
S2140013D02B813C81820F931FFC0180819181992390
S2140013E00CF043C089819A81880F991F9C01220FB7
S2140013F0331F220F331F820F931F2B813C81820FD6
S214001400931F2F81388521503109FC0131832083B9
S21400141089819A81880F991F9C01220F331F220F02
S214001420331F820F931F2B813C81280F391F898120
S2140014309A81880F991FAC01440F551F440F551F02
S214001440840F951F4B815C81840F951FFC014281A0
S214001450538180918D0590918E05880F991F840F7A
S214001460951FF90193838283A1C189819A81880F90
S214001470991F9C01220F331F220F331F820F931FC9
S2140014802B813C81820F931FFC01828193819C01FA
S2140014902F5F3F4F89859A85821793070CF03FC0D0
S2140014A089819A81880F991F9C01220F331F220F72
S2140014B0331F820F931F2B813C81820F931FFC01E9
S2140014C01382128289819A81880F991F9C01220FAC
S2140014D0331F220F331F820F931F2B813C81280F4F
S2140014E0391F89819A81880F991FAC01440F551FB7
S2140014F0440F551F840F951F4B815C81840F951FE9
S214001500FC014081518180917D0590917E05880F78
S214001510991F840F951FF9019183808347C18981A4
S2140015209A81880F991F9C01220F331F220F331FA9
S214001530820F931F2B813C81820F931FFC018281B7
S214001540938199230CF043C089819A81880F991F53
S2140015509C01220F331F220F331F820F931F2B81F4
S2140015603C81820F931F29853A8521503109FC0161
S2140015703383228389819A81880F991F9C01220FC9
S214001580331F220F331F820F931F2B813C81280F9E
S214001590391F89819A81880F991FAC01440F551F06
S2140015A0440F551F840F951F4B815C81840F951F38
S2140015B0FC014081518180917D0590917E05880FC8
S2140015C0991F840F951FF90191838083EFC089814D
S2140015D09A81880F991F9C01220F331F220F331FF9
S2140015E0820F931F2B813C81280F391F89819A8196
S2140015F0880F991FAC01440F551F440F551F840FC9
S214001600951F4B815C81840F951FFC0140815181A1
S21400161080917D0590917E05880F991F840F951FF8
S214001620F9019183808389819A81880F991F9C0193
S214001630220F331F220F331F820F931F2B813C81F3
S214001640280F391F89819A81880F991FAC01440F92
S214001650551F440F551F840F951F4B815C81840FC7
S214001660951FFC014281538180918D0590918E05D6
S214001670880F991F840F951FF9019383828396C064
S21400168089819A81880F991F9C01220F331F220F90
S214001690331F820F931F2B813C81280F391F8981AE
S2140016A09A81880F991FAC01440F551F440F551F90
S2140016B0840F951F4B815C81840F951FFC018081F0
S2140016C09181F9019583848389819A81880F991F76
S2140016D09C01220F331F220F331F820F931F2B8173
S2140016E03C81280F391F89819A81880F991FAC0188
S2140016F0440F551F440F551F840F951F4B815C8167
S214001700840F951FFC0182819381F901978386835C
S21400171089819A81880F991F9C01220F331F220FFF
S214001720331F820F931F2B813C81280F391F89811D
S2140017309A81880F991FAC01440F551F440F551FFF
S214001740840F951F4B815C81840F951FFC0180855B
S2140017509185FC0184819581F9019183808389813B
S2140017609A81880F991F9C01220F331F220F331F67
S214001770820F931F2B813C81280F391F89819A8104
S214001780880F991FAC01440F551F440F551F840F37
S214001790951F4B815C81840F951FFC018085918588
S2140017A0FC0186819781F9019383828389819A81DE
S2140017B001969A83898329813A818D819E81281793
S2140017C039070CF443CD2D813E818B819C81B90174
S2140017D027DC00002A960FB6F894DEBF0FBECDBFFA
S2140017E0DF91CF910895CF93DF93CDB7DEB768979B
S2140017F00FB6F894DEBF0FBECDBF9E8B8D8B788F55
S2140018006F8B8F89988D880F991F9C01220F331F2D
S214001810220F331F820F931F44972D893E89820F14
S214001820931F2AE0FC01CE010196DC0101900D9287
S2140018302A95E1F78D819E819C878B878F8198857D
S2140018409E878D878F89988D880F991F9C01220F00
S214001850331F220F331F820F931F44972D893E8913
S214001860820F931F9C8B8B8B8F89988D880F991F67
S2140018709C01220F331F220F331F820F931F0A97DC
S2140018802D893E89820F931F2AE0FE013B96DC01DC
S21400189001900D922A95E1F7000068960FB6F8942D
S2140018A0DEBF0FBECDBFDF91CF910895CF93DF93FC
S2140018B0CDB7DEB780918F0590919005DF91CF91DF
S2140018C00895CF93DF93CDB7DEB784E290E027E0AC
S2140018D0FC0120838CE490E021E5FC0120830000DD
S2140018E0DF91CF910895CF93DF9300D0CDB7DEB7C9
S2140018F08B8385E290E025E230E0F90120812E7F9F
S214001900FC0120838EE490E02B81FC0120831A8268
S214001910198205C089819A8101969A8389838DE40C
S21400192090E0FC0180818823ACF78EE490E0FC0117
S21400193080818B8385E290E025E230E0F90120810A
S2140019402160FC01208300000F900F900F90DF9124
S214001950CF910895CF93DF9300D01F92CDB7DEB717
S2140019609C838B831A8219820EC089819A812B816F
S2140019703C81820F931FFC018081A5DA89819A81C0
S21400198001969A83898389819A81883F91406CF376
S21400199000000F900F900F900F90DF91CF91089559
S2140019A0CF93DF9300D01F92CDB7DEB79C838B8397
S2140019B0A0DA60E080E04BDA1A8219820EC08981D4
S2140019C09A812B813C81820F931FFC0180817BDAF8
S2140019D089819A8101969A83898389819A812B814C
S2140019E03C81820F931FFC0180818C3541F70000FB
S2140019F00F900F900F900F90DF91CF910895CF9397
S214001A00DF93CDB7DEB728970FB6F894DEBF0FBECC
S214001A10CDBF9C838B836D834E8338872F836E81E7
S214001A208D8115DA1A8219820EC089819A812B81DE
S214001A303C81820F931FFC01808145DA89819A815F
S214001A4001969A83898329813A818F819885281700
S214001A5039075CF3000028960FB6F894DEBF0FBE79
S214001A60CDBFDF91CF910895CF93DF93CDB7DEB78B
S214001A7028970FB6F894DEBF0FBECDBF8D836E835A
S214001A8058874F838D81843508F08CC08E818033D3
S214001A9008F08AC01A8219821C821B828E818830C6
S214001AA040F41A8219828E81882F90E09C838B8363
S214001AB054C08E81883070F08E81803158F484E571
S214001AC090E09A8389838E81882F90E008979C8384
S214001AD08B8343C08E81803170F08E81883158F4BC
S214001AE088EA90E09A8389838E81882F90E04097D9
S214001AF09C838B8332C08E81883170F08E818032D9
S214001B0058F48CEF90E09A8389838E81882F90E03A
S214001B1048979C838B8321C08E81803270F08E81A3
S214001B20883258F480E591E09A8389838E81882FE5
S214001B3090E080979C838B8310C08E81883268F0FB
S214001B408E81803350F484EA91E09A8389838E8173
S214001B50882F90E088979C838B838D81282F30E098
S214001B6089819A81820F931F2F813885820F931F58
S214001B702D81422F50E029813A81240F351F4F8155
S214001B805885240F351FF9012081422F21E030E0CF
S214001B900B8002C0220F331F0A94E2F7242BFC01AD
S214001BA0208303C0000001C0000028960FB6F894FA
S214001BB0DEBF0FBECDBFDF91CF910895CF93DF93E9
S214001BC000D01F92CDB7DEB789836A835C834B83D0
S214001BD08B819C81AC016A81898146DF898121E005
S214001BE0280F8B819C81AC016A81822F3DDF8A8120
S214001BF021E0280F8B819C81AC01622F898134DF24
S214001C008A8131E0380F898121E0280F8B819C8101
S214001C10AC01632F822F28DF00000F900F900F90EB
S214001C200F90DF91CF910895CF93DF9300D01F924E
S214001C30CDB7DEB789836A835C834B838B819C81B7
S214001C40AC016A81898110DF898122E0280F8B81AF
S214001C509C81AC016A81822F07DF8A8131E0380FD0
S214001C60898121E0280F8B819C81AC01632F822F14
S214001C70FBDE8A813FEF380F898121E0280F8B81B8
S214001C809C81AC01632F822FEFDE00000F900F9037
S214001C900F900F90DF91CF910895CF93DF9300D0F0
S214001CA000D0CDB7DEB79E838D831A8219820EC010
S214001CB089819A812D813E81820F931FFC0180814C
S214001CC002D989819A8101969A83898389819A812A
S214001CD0883F91406CF31C821B820DC08B819C81D7
S214001CE02D813E81820F931FFC0110828B819C8187
S214001CF001969C838B838B819C81883F914074F3F3
S214001D00000026960FB6F894DEBF0FBECDBFDF915B
S214001D10CF9108956CD008F481E0089594D088F0AF
S214001D209F5790F0B92F9927B751A0F0D1F0660FC2
S214001D30771F881F991F1AF0BA95C9F712C0B130DD
S214001D4081F09BD0B1E0089598C0672F782F882740
S214001D50B85F39F0B93FCCF3869577956795B3951C
S214001D60D9F73EF490958095709561957F4F8F4F8B
S214001D709F4F0895E89409C097FB3EF49095809590
S214001D80709561957F4F8F4F9F4F9923A9F0F92F3C
S214001D9096E9BB279395F695879577956795B795BA
S214001DA0F111F8CFFAF4BB0F11F460FF1BC06F5FA0
S214001DB07F4F8F4F9F4F16C0882311F096E911C0B2
S214001DC0772321F09EE8872F762F05C0662371F0D3
S214001DD096E8862F70E060E02AF09A95660F771FE7
S214001DE0881FDAF7880F9695879597F90895990FC3
S214001DF00008550FAA0BE0E8FEEF16161706E807D0
S214001E00F907C0F012161306E407F50798F0621BF0
S214001E10730B840B950B39F40A2661F0232B242BC5
S214001E20252B21F408950A2609F4A140A6958FEFE4
S214001E30811D811D089557FD9058440F551F59F078
S214001E405F3F71F04795880F97FB991F61F09F3FA2
S214001E5079F087950895121613061406551FF2CFCB
S214001E604695F1DF08C0161617061806991FF1CF1B
S214001E7086957105610508940895E894BB27662742
S214001E807727CB0197F90895B2DF08F48FEF08950E
S214001E900BD078C069D028F06ED018F0952309F0E2
S214001EA05AC05FC01124EACFC6DFA0F3959FD1F3D6
S214001EB0950F50E0551F629FF001729FBB27F00DF3
S214001EC0B11D639FAA27F00DB11DAA1F649F662748
S214001ED0B00DA11D661F829F2227B00DA11D621F97
S214001EE0739FB00DA11D621F839FA00D611D221F51
S214001EF0749F3327A00D611D231F849F600D211D35
S214001F00822F762F6A2F11249F5750408AF0E1F0D7
S214001F1088234AF0EE0FFF1FBB1F661F771F881F20
S214001F2091505040A9F79E3F510570F014C0A6CFBF
S214001F305F3FECF3983EDCF3869577956795B7950B
S214001F40F795E7959F5FC1F7FE2B880F911D969535
S214001F50879597F9089597F99F6780E870E060E0A5
S214001F6008959FEF80EC089500240A94161617062D
S214001F7018060906089500240A9412161306140675
S214001F8005060895092E0394000C11F4882352F0D8
S214001F90BB0F40F4BF2B11F460FF04C06F5F7F4F90
S214001FA08F4F9F4F089597FB072E16F4009406D088
S214001FB077FD08D00BD007FC05D03EF490958195B0
S214001FC09F4F0895709561957F4F0895AA1BBB1B80
S214001FD051E107C0AA1FBB1FA617B70710F0A61B24
S214001FE0B70B881F991F5A95A9F780959095BC0145
S214001FF0CD0108958F929F92AF92BF92CF92DF92BB
S214002000EF92FF92CF93DF93EC01688179818A810A
S2140020109B81611571058105910521F464E279EDD6
S2140020208BE597E02DE133EF41E050E01AD349010C
S2140020305A019B01AC01A7EAB1E42FD36B017C01E6
S214002040ACEEB4EFA501940134D3DC01CB018C0DCA
S2140020509D1DAE1DBF1DB7FF03C00197A109B04867
S21400206088839983AA83BB839F77DF91CF91FF9064
S214002070EF90DF90CF90BF90AF909F908F90089595
S214002080B9CF80E092E0B6CFA0E0B0E08093000247
S21400209090930102A0930202B09303020895DC011C
S2140020A001C06D9341505040E0F708950F931F9381
S2140020B0CF93DF93CDB7DEB72E970FB6F894DEBF7B
S2140020C00FBECDBF0E891F8986E08C831A830983D5
S2140020D08FEF9FE79E838D83AE01465E5F4F688DD0
S2140020E0798DCE01019610D0EF81F885E00FF11FB3
S2140020F010822E960FB6F894DEBF0FBECDBFDF91CE
S214002100CF911F910F9108952F923F924F925F9219
S2140021106F927F928F929F92AF92BF92CF92DF92F2
S214002120EF92FF920F931F93CF93DF93CDB7DEB757
S2140021302B970FB6F894DEBF0FBECDBF6C017B01A8
S2140021408A01FC0117821682838181FFBFC1CE01FE
S21400215001963C01F6019381F70193FD859193FF6B
S21400216081917F01882309F4ADC1853239F493FD4E
S214002170859193FF81917F01853221F4B60190E02D
S214002180D6D1E8CF912C212C312CFFE1F315D8F0D5
S2140021908B3279F038F4803279F08332A1F4232D33
S2140021A020611DC08D3261F0803369F4232D2160DB
S2140021B016C0832D8260382EE32DE4603E2E2AC0A2
S2140021C0F32DF8601DC037FC2DC020ED280F2A30F7
S2140021D040F08E32B9F436FC75C1232D2064322EC1
S2140021E019C036FE06C08AE0989E200D1124922E55
S2140021F011C0EAE02E9E200D1124222EF32DF0624F
S2140022003F2E08C08C3621F4832D8068382E02C0FD
S214002210883641F4F70193FD859193FF81917F0104
S2140022208111B3CF982F9F7D9554933028F40C5F7F
S2140022301F4F9FE399830DC0833631F0833771F0CB
S214002240833509F055C020C0F801808189830E5F70
S2140022501F4F88248394912C530112C02801F2E06A
S2140022604F0E511CF801A080B18036FE03C0692DC8
S21400227070E002C06FEF7FEFC5014ED14C018201C6
S214002280F32DFF773F2E15C0280122E0420E511C89
S214002290F801A080B18036FE03C0692D70E002C050
S2140022A06FEF7FEFC5012DD14C01F32DF0683F2E67
S2140022B0820133FC19C0822D90E088169906A0F49E
S2140022C0B60180E290E033D12A94F5CFF50137FCD1
S2140022D0859137FE81915F01B60190E028D12110EB
S2140022E02A9421E0821A91088114910479F7E1C0BA
S2140022F0843611F0893639F5F80137FE07C060815B
S2140023007181828193810C5F1F4F08C0608171814B
S214002310072E000C880B990B0E5F1F4FF32DFF76D0
S2140023203F2E97FF09C090958095709561957F4FD9
S2140023308F4F9F4FF0683F2E2AE030E0A30133D145
S214002340882E861844C0853731F4232D2F7EB22E72
S2140023502AE030E025C0932D997FB92E8F36C1F044
S21400236018F4883579F0AEC0803719F0883721F038
S214002370A9C0E92FE061BE2EB4FE0DC0FB2DF460AF
S214002380BF2E09C034FE0AC0292F2660B22E06C012
S21400239028E030E005C020E130E002C020E132E075
S2140023A0F801B7FE07C060817181828193810C5F5E
S2140023B01F4F06C06081718180E090E00E5F1F4F66
S2140023C0A301F1D0882E8618FB2DFF773F2E36FE10
S2140023D00DC0232D2E7FA22E891458F434FE0BC078
S2140023E032FC09C0832D8E7EA82E05C0B82CA32CE7
S2140023F003C0B82C01C0B92CA4FE0FC0FE01E80D26
S214002400F11D8081803321F49A2D997EA92E09C072
S214002410A2FE06C0B394B39404C08A2D867809F051
S214002420B394A3FC10C0A0FE06C0B21480F4280C1F
S214002430922C9B180DC0B21458F4B60180E290E0BE
S21400244076D0B394F8CFB21418F42B1802C0982C98
S214002450212CA4FE0FC0B60180E390E068D0A2FE57
S21400246016C0A1FC03C088E790E002C088E590E0B3
S214002470B6010CC08A2D867851F0A1FE02C08BE210
S21400248001C080E2A7FC8DE2B60190E050D089142E
S21400249030F4B60180E390E04AD09A94F8CF8A945C
S2140024A0F301E80DF11D8081B60190E040D0811067
S2140024B0F6CF222009F44ECEB60180E290E037D067
S2140024C02A94F7CFF6018681978102C08FEF9FEF9F
S2140024D02B960FB6F894DEBF0FBECDBFDF91CF911F
S2140024E01F910F91FF90EF90DF90CF90BF90AF902D
S2140024F09F908F907F906F905F904F903F902F901F
S2140025000895FC010590615070400110D8F7809541
S21400251090958E0F9F1F0895FC01615070400190AA
S2140025200110D8F7809590958E0F9F1F08950F93F2
S2140025301F93CF93DF93FB01238121FD03C08FEF11
S2140025409FEF2CC022FF16C046815781248135811B
S2140025504217530744F4A081B1819D012F5F3F4F7E
S214002560318320838C93268137812F5F3F4F3783BB
S214002570268314C08B01EC01FB010084F185E02D5D
S2140025801995892BE1F6D80116968D919C9117978F
S214002590019617969C938E931697CE01DF91CF9156
S2140025A01F910F910895FA01AA27283051F1203182
S2140025B081F1E8946F936E7F6E5F7F4F8F4F9F4FD2
S2140025C0AF4FB1E03ED0B4E03CD0670F781F891F14
S2140025D09A1FA11D680F791F8A1F911DA11D6A0FE2
S2140025E0711D811D911DA11D20D009F468943F9195
S2140025F02AE0269F11243019305D3193DEF6CF0194
S2140026000895462F4770405D4193B3E00FD0C9F759
S214002610F6CF462F4F70405D4A3318F0495D31FDC6
S2140026204052419302D0A9F7EACFB4E0A695979519
S214002630879577956795BA95C9F7009761057105EF
S21400264008959B01AC010A2E069457954795379539
S2140026502795BA95C9F7620F731F841F951FA01D93
S2140026600895052E97FB16F400940FD057FD05D05D
S21400267024D007FC02D046F408C05095409530950B
S21400268021953F4F4F4F5F4F0895909580957095D9
S21400269061957F4F8F4F9F4F089531D0A59F900D26
S2140026A0B49F900DA49F800D911D11240895B7FF2F
S2140026B0F4CFF3DF821B930B0895A1E21A2EAA1B18
S2140026C0BB1BFD010DC0AA1FBB1FEE1FFF1FA217DD
S2140026D0B307E407F50720F0A21BB30BE40BF50BDA
S2140026E0661F771F881F991F1A9469F76095709563
S2140026F0809590959B01AC01BD01CF010895A29FE6
S214002700B001B39FC001A39F700D811D1124911DC0
S214002710B29F700D811D1124911D0895F894FFCF6E
S214002720010000003134372A323538303336392349
S214002730414243440070F8D89800F0F818F8F000CA
S21400274000F0F898F8F00000F8F840F0F8180800E4
S214002750F0F8D8D80000000000F0F898F8F0000074
S2140027600000000000000000000000000000000064
S2140027700000000000000000000000000000000054
S214002780000000000000000006060603030007071E
S21400279000070700000707010707000007070003F8
S2140027A0070704000307060600000000008787816D
S2140027B08787800000000000000000000000000086
S2140027C08080808080000000000000000000008004
S2140027D08080000080808000000000000000000074
S2140027E000000000000000000000000000000000E4
S2140027F000000000000000000000000000000000D4
S214002800007F7F016161733F1E3C7E666E6E0C002A
S214002810000000007F7F016D7F3B3C7E66667E3C4D
S2140028200060676F3D3960676F3D3900000000004B
S2140028300000000000000000000000000000000093
S214002840000000F80808080808080808080808082B
S21400285008080808080808080808080808080808F3
S214002860080808080808080808080808F80000000B
S2140028700000000000000000000000000000000053
S2140028800000000000000000000000000000000043
S21400289000000000000000FF000000000000000034
S2140028A0000000E0E0606060606060606060607E25
S2140028B07E06060606060600000000020502000068
S2140028C0FF00000000000000000000000000000004
S2140028D000000000000000000000000000000000F3
S2140028E000000000000000000000003F2020202024
S2140028F020202026262626272720202020202020AD
S21400290020202020202020202020202020202020C2
S214002910202020203F0000000000000000000000F3
S21400292000000000000000000000000000000000A2
S2140029300000F8F8808080808080F8F80000D8D802
S214002940000080C0C0C0C0800000FCFC80C0C0C0CA
S214002950800000E0F0B89898981000000080C0C092
S214002960C0C080000080C0C0C0C00000C0C080C022
S214002970C0C0000080C0C0C0C080000000000000D2
S2140029800000000000003F3F0101010101013F3F40
S21400299000003F3F001F3F3130B8FFFF00003F3FC1
S2140029A00100003F3F001C3C31313131191F0F0040
S2140029B00E1F3130303919000F1F3130301F0F0015
S2140029C03F3F01000303000F1F3D36363313000060
S2140029D000000000000000000000000000000000F2
S2140029E000000000000000000003030303030100D2
S2140029F000000000000000000000000000000000D2
S214002A0000000000000000000000000000000000C1
S214002A1000000000000000000000000000000000B1
S214002A2000000000000000005C10107EFFD3FF7E58
S214002A301010D6D6FFFFD0D01010F6F6D3DBDFD6B8
S214002A4010101076D3DBFF76101030383C36FFFFC0
S214002A503010107FDFDBFB7310101078FCDEFB718C
S214002A6010101013D3F33B1713101076FFDBFF760E
S214002A701010101E9FDB7F1E1010109010101010EC
S214002A8010090511051905210529053105390541E6
S214002A900549055105040001003C003C00010025E5
S208002AA03032640067
S21403FE00CF93DF931F921F92CDB7DEB79A83898372
S21403FE1023E080E09DEFA0E0B0E0FC01A0935B0050
S21403FE2020935700E89587E590E0FC018081882FB2
S21403FE3090E081709927892BB1F789819A81FC011B
S21403FE408081282F30E041E080E090E0DC0109016A
S21403FE50FC01A0935B0040935700E8951124898129
S21403FE609A810196FC018081282F30E041E082E0F0
S21403FE7090E0A0E0B0E00901FC01A0935B00409392
S21403FE805700E895112489819A810296FC018081A6
S21403FE90282F30E041E084E090E0A0E0B0E00901E4
S21403FEA0FC01A0935B0040935700E895112425E0DE
S21403FEB080E09DEFA0E0B0E0FC01A0935B00209300
S21403FEC05700E89587E590E0FC018081882F90E055
S21403FED081709927892BB1F781E180935700E895C4
S21403FEE087E590E0FC018081882F90E08170992758
S21403FEF0892BB1F700000F900F90DF91CF910895F3
S804000000FB
