S0150000536E616B6541444465426F73732E7372656358
S113000071C0000081C000007FC000007DC00000FE
S11300107BC0000079C0000077C0000075C00000FC
S113002073C0000071C000006FC000006DC000000C
S11300306BC0000069C0000067C0000065C000001C
S113004063C0000061C000005FC000005DC000002C
S11300505BC0000059C0000057C0000055C000003C
S113006053C0000051C000004FC000004DC000004C
S11300704BC0000049C0000047C0000045C000005C
S113008043C0000041C000003FC000003DC000006C
S11300903BC0000039C0000037C0000035C000007C
S11300A033C0000031C000002FC000002DC000008C
S11300B02BC0000029C0000027C0000025C000009C
S11300C023C0000021C000001FC000001DC00000AC
S11300D01BC0000019C0000017C0000015C00000BC
S11300E013C0000011241FBECFEFD1E2DEBFCDBF8D
S11300F000E00CBF23E0A0E0B2E001C01D92A83FE5
S1130100B207E1F702D023C47BCFCF93DF93CDB7FF
S1130110DEB762970FB6F894DEBF0FBECDBF8ED0A8
S11301201A8219820BC089819A8180509E4FFC01EA
S1130130108289819A8101969A83898389819A811F
S1130140883F914084F31B821C8274D18B818F5F22
S11301508B8340E052E06C818B817AD280E092E024
S1130160ADD280E090E0A8E4B2E48D839E83AF83B7
S1130170B88720E030E04AE755E46D817E818F81C5
S113018098855AD3DC01CB0189879A87AB87BC87D2
S113019020E030E040E85FE369857A858B859C85C3
S11301A0CAD288232CF481E090E09E878D873BC0DF
S11301B020E03FEF4FE757E469857A858B859C857E
S11301C037D318163CF520E030E040E251E46D816D
S11301D07E818F81988530D3DC01CB01BC01CD01B8
S11301E0AED2DC01CB019E878D870FC080E991E000
S11301F0988B8F878F8598890197F1F7988B8F87D4
S11302008D859E8501979E878D878D859E85892BFB
S113021069F713C069857A858B859C8590D2DC014A
S1130220CB019E878D878D859E859A8B898B898945
S11302309A890197F1F79A8B898B87CFCF93DF93B4
S1130240CDB7DEB712D181E290E02FEFFC0120831D
S113025082E290E022E230E0F90120812160FC0199
S1130260208382E290E022E230E0F90120812260E2
S1130270FC01208382E290E022E230E0F901208157
S11302802B7FFC0120830FD081E29FD080EC9DD096
S113029083E19BD080E299D08CE097D0CBD0000052
S11302A0DF91CF910895CF93DF93CDB7DEB72E972B
S11302B00FB6F894DEBF0FBECDBF82E290E022E21B
S11302C030E0F90120812E7FFC01208380E090E062
S11302D0A8ECB2E489839A83AB83BC8320E030E04A
S11302E04AE755E469817A818B819C81A5D2DC013E
S11302F0CB018D839E83AF83B88720E030E040E854
S11303005FE36D817E818F81988515D288232CF4DB
S113031081E090E09A8789873BC020E03FEF4FE778
S113032057E46D817E818F81988582D218163CF5C1
S113033020E030E040E251E469817A818B819C8144
S11303407BD2DC01CB01BC01CD01F9D1DC01CB01B5
S11303509A8789870FC080E991E09C878B878B857A
S11303609C850197F1F79C878B8789859A850197EE
S11303709A87898789859A85892B69F713C06D8146
S11303807E818F819885DBD1DC01CB019A878987B7
S113039089859A859E878D878D859E850197F1F73E
S11303A09E878D8782E290E022E230E0F90120818D
S11303B02160FC01208300002E960FB6F894DEBF66
S11303C00FBECDBFDF91CF910895CF93DF931F92DE
S11303D0CDB7DEB7898382E290E022E230E0F90112
S11303E020812D7FFC012083898151D082E290E01D
S11303F022E230E0F90120812260FC012083000028
S11304000F90DF91CF910895CF93DF931F92CDB7D3
S1130410DEB7898382E290E022E230E0F9012081B4
S11304202260FC012083898132D000000F90DF918B
S1130430CF910895CF93DF931F921F92CDB7DEB76C
S11304401A82198207C080E0DFDF89819A810196D0
S11304509A83898389819A81883F9140A4F300001B
S11304600F900F90DF91CF910895CF93DF93CDB785
S1130470DEB784E290E027E0FC0120838CE490E086
S113048021E5FC0120830000DF91CF910895CF93F3
S1130490DF9300D0CDB7DEB78B8385E290E025E211
S11304A030E0F90120812E7FFC0120838EE490E06E
S11304B02B81FC0120831A82198205C089819A81CB
S11304C001969A8389838DE490E0FC0180818823DE
S11304D0ACF78EE490E0FC0180818B8385E290E0B0
S11304E025E230E0F90120812160FC012083000035
S11304F00F900F900F90DF91CF910895CF93DF93DA
S1130500CDB7DEB728970FB6F894DEBF0FBECDBFC8
S11305108D836E8358874F838D81843508F08CC01A
S11305208E81803308F08AC01A8219821C821B8251
S11305308E81883040F41A8219828E81882F90E04F
S11305409C838B8354C08E81883070F08E8180317F
S113055058F484E590E09A8389838E81882F90E013
S113056008979C838B8343C08E81803170F08E8189
S1130570883158F488EA90E09A8389838E81882FA1
S113058090E040979C838B8332C08E81883170F0D9
S11305908E81803258F48CEF90E09A8389838E8127
S11305A0882F90E048979C838B8321C08E81803272
S11305B070F08E81883258F480E591E09A838983C3
S11305C08E81882F90E080979C838B8310C08E81CE
S11305D0883268F08E81803350F484EA91E09A8303
S11305E089838E81882F90E088979C838B838D816B
S11305F0282F30E089819A81820F931F2F813885BB
S1130600820F931F2D81422F50E029813A81240FBC
S1130610351F4F815885240F351FF9012081422F42
S113062021E030E00B8002C0220F331F0A94E2F76E
S1130630242BFC01208303C0000001C00000289685
S11306400FB6F894DEBF0FBECDBFDF91CF910895F2
S1130650CF93DF9300D01F92CDB7DEB789836A832F
S11306605C834B838B819C81AC016A81898146DFE9
S1130670898121E0280F8B819C81AC016A81822FC2
S11306803DDF8A8121E0280F8B819C81AC01622FA0
S1130690898134DF8A8131E0380F898121E0280F94
S11306A08B819C81AC01632F822F28DF00000F9087
S11306B00F900F900F90DF91CF910895CF93DF9318
S11306C000D000D0CDB7DEB79E838D831A82198205
S11306D00EC089819A812D813E81820F931FFC0176
S11306E0808192DE89819A8101969A8389838981A6
S11306F09A81883F91406CF31C821B820DC08B81D0
S11307009C812D813E81820F931FFC0110828B817D
S11307109C8101969C838B838B819C81883F914033
S113072074F3000026960FB6F894DEBF0FBECDBF5B
S1130730DF91CF9108952FD008F481E0089557D028
S113074088F09F5790F0B92F9927B751A0F0D1F0B6
S1130750660F771F881F991F1AF0BA95C9F712C040
S1130760B13081F05ED0B1E008955BC0672F782F7F
S11307708827B85F39F0B93FCCF3869577956795AC
S1130780B395D9F73EF490958095709561957F4F18
S11307908F4F9F4F0895990F0008550FAA0BE0E85B
S11307A0FEEF16161706E807F907C0F0121613062F
S11307B0E407F50798F0621B730B840B950B39F46F
S11307C00A2661F0232B242B252B21F408950A26D5
S11307D009F4A140A6958FEF811D811D089557FD51
S11307E09058440F551F59F05F3F71F04795880F9B
S11307F097FB991F61F09F3F79F087950895121632
S113080013061406551FF2CF4695F1DF08C01616DD
S113081017061806991FF1CF86957105610508948E
S11308200895E894BB2766277727CB0197F90895A5
S1130830B2DF08F48FEF08950BD078C069D028F0A8
S11308406ED018F0952309F05AC05FC01124EACF86
S1130850C6DFA0F3959FD1F3950F50E0551F629F1B
S1130860F001729FBB27F00DB11D639FAA27F00D05
S1130870B11DAA1F649F6627B00DA11D661F829F2C
S11308802227B00DA11D621F739FB00DA11D621F11
S1130890839FA00D611D221F749F3327A00D611D2E
S11308A0231F849F600D211D822F762F6A2F112410
S11308B09F5750408AF0E1F088234AF0EE0FFF1F63
S11308C0BB1F661F771F881F91505040A9F79E3F9A
S11308D0510570F014C0A6CF5F3FECF3983EDCF3F3
S11308E0869577956795B795F795E7959F5FC1F7D7
S11308F0FE2B880F911D9695879597F9089597F982
S11309009F6780E870E060E008959FEF80EC0895B1
S113091000240A94161617061806090608950024DA
S11309200A9412161306140605060895092E039454
S1130930000C11F4882352F0BB0F40F4BF2B11F4C8
S113094060FF04C06F5F7F4F8F4F9F4F0895F894EF
S1050950FFCFD3
S9030000FC
